{
  "_format": "hh-sol-artifact-1",
  "contractName": "MyToken",
  "sourceName": "contracts/GovernanceTokenERC20.sol",
  "abi": [
    {
      "inputs": [],
      "stateMutability": "nonpayable",
      "type": "constructor"
    },
    {
      "anonymous": false,
      "inputs": [
        {
          "indexed": true,
          "internalType": "address",
          "name": "owner",
          "type": "address"
        },
        {
          "indexed": true,
          "internalType": "address",
          "name": "spender",
          "type": "address"
        },
        {
          "indexed": false,
          "internalType": "uint256",
          "name": "value",
          "type": "uint256"
        }
      ],
      "name": "Approval",
      "type": "event"
    },
    {
      "anonymous": false,
      "inputs": [
        {
          "indexed": true,
          "internalType": "address",
          "name": "delegator",
          "type": "address"
        },
        {
          "indexed": true,
          "internalType": "address",
          "name": "fromDelegate",
          "type": "address"
        },
        {
          "indexed": true,
          "internalType": "address",
          "name": "toDelegate",
          "type": "address"
        }
      ],
      "name": "DelegateChanged",
      "type": "event"
    },
    {
      "anonymous": false,
      "inputs": [
        {
          "indexed": true,
          "internalType": "address",
          "name": "delegate",
          "type": "address"
        },
        {
          "indexed": false,
          "internalType": "uint256",
          "name": "previousBalance",
          "type": "uint256"
        },
        {
          "indexed": false,
          "internalType": "uint256",
          "name": "newBalance",
          "type": "uint256"
        }
      ],
      "name": "DelegateVotesChanged",
      "type": "event"
    },
    {
      "anonymous": false,
      "inputs": [
        {
          "indexed": true,
          "internalType": "address",
          "name": "previousOwner",
          "type": "address"
        },
        {
          "indexed": true,
          "internalType": "address",
          "name": "newOwner",
          "type": "address"
        }
      ],
      "name": "OwnershipTransferred",
      "type": "event"
    },
    {
      "anonymous": false,
      "inputs": [
        {
          "indexed": false,
          "internalType": "uint256",
          "name": "id",
          "type": "uint256"
        }
      ],
      "name": "Snapshot",
      "type": "event"
    },
    {
      "anonymous": false,
      "inputs": [
        {
          "indexed": true,
          "internalType": "address",
          "name": "from",
          "type": "address"
        },
        {
          "indexed": true,
          "internalType": "address",
          "name": "to",
          "type": "address"
        },
        {
          "indexed": false,
          "internalType": "uint256",
          "name": "value",
          "type": "uint256"
        }
      ],
      "name": "Transfer",
      "type": "event"
    },
    {
      "inputs": [],
      "name": "DOMAIN_SEPARATOR",
      "outputs": [
        {
          "internalType": "bytes32",
          "name": "",
          "type": "bytes32"
        }
      ],
      "stateMutability": "view",
      "type": "function"
    },
    {
      "inputs": [
        {
          "internalType": "address",
          "name": "owner",
          "type": "address"
        },
        {
          "internalType": "address",
          "name": "spender",
          "type": "address"
        }
      ],
      "name": "allowance",
      "outputs": [
        {
          "internalType": "uint256",
          "name": "",
          "type": "uint256"
        }
      ],
      "stateMutability": "view",
      "type": "function"
    },
    {
      "inputs": [
        {
          "internalType": "address",
          "name": "spender",
          "type": "address"
        },
        {
          "internalType": "uint256",
          "name": "amount",
          "type": "uint256"
        }
      ],
      "name": "approve",
      "outputs": [
        {
          "internalType": "bool",
          "name": "",
          "type": "bool"
        }
      ],
      "stateMutability": "nonpayable",
      "type": "function"
    },
    {
      "inputs": [
        {
          "internalType": "address",
          "name": "account",
          "type": "address"
        }
      ],
      "name": "balanceOf",
      "outputs": [
        {
          "internalType": "uint256",
          "name": "",
          "type": "uint256"
        }
      ],
      "stateMutability": "view",
      "type": "function"
    },
    {
      "inputs": [
        {
          "internalType": "address",
          "name": "account",
          "type": "address"
        },
        {
          "internalType": "uint256",
          "name": "snapshotId",
          "type": "uint256"
        }
      ],
      "name": "balanceOfAt",
      "outputs": [
        {
          "internalType": "uint256",
          "name": "",
          "type": "uint256"
        }
      ],
      "stateMutability": "view",
      "type": "function"
    },
    {
      "inputs": [
        {
          "internalType": "uint256",
          "name": "amount",
          "type": "uint256"
        }
      ],
      "name": "burn",
      "outputs": [],
      "stateMutability": "nonpayable",
      "type": "function"
    },
    {
      "inputs": [
        {
          "internalType": "address",
          "name": "account",
          "type": "address"
        },
        {
          "internalType": "uint256",
          "name": "amount",
          "type": "uint256"
        }
      ],
      "name": "burnFrom",
      "outputs": [],
      "stateMutability": "nonpayable",
      "type": "function"
    },
    {
      "inputs": [
        {
          "internalType": "address",
          "name": "account",
          "type": "address"
        },
        {
          "internalType": "uint32",
          "name": "pos",
          "type": "uint32"
        }
      ],
      "name": "checkpoints",
      "outputs": [
        {
          "components": [
            {
              "internalType": "uint32",
              "name": "fromBlock",
              "type": "uint32"
            },
            {
              "internalType": "uint224",
              "name": "votes",
              "type": "uint224"
            }
          ],
          "internalType": "struct ERC20Votes.Checkpoint",
          "name": "",
          "type": "tuple"
        }
      ],
      "stateMutability": "view",
      "type": "function"
    },
    {
      "inputs": [],
      "name": "decimals",
      "outputs": [
        {
          "internalType": "uint8",
          "name": "",
          "type": "uint8"
        }
      ],
      "stateMutability": "view",
      "type": "function"
    },
    {
      "inputs": [
        {
          "internalType": "address",
          "name": "spender",
          "type": "address"
        },
        {
          "internalType": "uint256",
          "name": "subtractedValue",
          "type": "uint256"
        }
      ],
      "name": "decreaseAllowance",
      "outputs": [
        {
          "internalType": "bool",
          "name": "",
          "type": "bool"
        }
      ],
      "stateMutability": "nonpayable",
      "type": "function"
    },
    {
      "inputs": [
        {
          "internalType": "address",
          "name": "delegatee",
          "type": "address"
        }
      ],
      "name": "delegate",
      "outputs": [],
      "stateMutability": "nonpayable",
      "type": "function"
    },
    {
      "inputs": [
        {
          "internalType": "address",
          "name": "delegatee",
          "type": "address"
        },
        {
          "internalType": "uint256",
          "name": "nonce",
          "type": "uint256"
        },
        {
          "internalType": "uint256",
          "name": "expiry",
          "type": "uint256"
        },
        {
          "internalType": "uint8",
          "name": "v",
          "type": "uint8"
        },
        {
          "internalType": "bytes32",
          "name": "r",
          "type": "bytes32"
        },
        {
          "internalType": "bytes32",
          "name": "s",
          "type": "bytes32"
        }
      ],
      "name": "delegateBySig",
      "outputs": [],
      "stateMutability": "nonpayable",
      "type": "function"
    },
    {
      "inputs": [
        {
          "internalType": "address",
          "name": "account",
          "type": "address"
        }
      ],
      "name": "delegates",
      "outputs": [
        {
          "internalType": "address",
          "name": "",
          "type": "address"
        }
      ],
      "stateMutability": "view",
      "type": "function"
    },
    {
      "inputs": [
        {
          "internalType": "uint256",
          "name": "blockNumber",
          "type": "uint256"
        }
      ],
      "name": "getPastTotalSupply",
      "outputs": [
        {
          "internalType": "uint256",
          "name": "",
          "type": "uint256"
        }
      ],
      "stateMutability": "view",
      "type": "function"
    },
    {
      "inputs": [
        {
          "internalType": "address",
          "name": "account",
          "type": "address"
        },
        {
          "internalType": "uint256",
          "name": "blockNumber",
          "type": "uint256"
        }
      ],
      "name": "getPastVotes",
      "outputs": [
        {
          "internalType": "uint256",
          "name": "",
          "type": "uint256"
        }
      ],
      "stateMutability": "view",
      "type": "function"
    },
    {
      "inputs": [
        {
          "internalType": "address",
          "name": "account",
          "type": "address"
        }
      ],
      "name": "getVotes",
      "outputs": [
        {
          "internalType": "uint256",
          "name": "",
          "type": "uint256"
        }
      ],
      "stateMutability": "view",
      "type": "function"
    },
    {
      "inputs": [
        {
          "internalType": "address",
          "name": "spender",
          "type": "address"
        },
        {
          "internalType": "uint256",
          "name": "addedValue",
          "type": "uint256"
        }
      ],
      "name": "increaseAllowance",
      "outputs": [
        {
          "internalType": "bool",
          "name": "",
          "type": "bool"
        }
      ],
      "stateMutability": "nonpayable",
      "type": "function"
    },
    {
      "inputs": [
        {
          "internalType": "address",
          "name": "to",
          "type": "address"
        },
        {
          "internalType": "uint256",
          "name": "amount",
          "type": "uint256"
        }
      ],
      "name": "mint",
      "outputs": [],
      "stateMutability": "nonpayable",
      "type": "function"
    },
    {
      "inputs": [],
      "name": "name",
      "outputs": [
        {
          "internalType": "string",
          "name": "",
          "type": "string"
        }
      ],
      "stateMutability": "view",
      "type": "function"
    },
    {
      "inputs": [
        {
          "internalType": "address",
          "name": "owner",
          "type": "address"
        }
      ],
      "name": "nonces",
      "outputs": [
        {
          "internalType": "uint256",
          "name": "",
          "type": "uint256"
        }
      ],
      "stateMutability": "view",
      "type": "function"
    },
    {
      "inputs": [
        {
          "internalType": "address",
          "name": "account",
          "type": "address"
        }
      ],
      "name": "numCheckpoints",
      "outputs": [
        {
          "internalType": "uint32",
          "name": "",
          "type": "uint32"
        }
      ],
      "stateMutability": "view",
      "type": "function"
    },
    {
      "inputs": [],
      "name": "owner",
      "outputs": [
        {
          "internalType": "address",
          "name": "",
          "type": "address"
        }
      ],
      "stateMutability": "view",
      "type": "function"
    },
    {
      "inputs": [
        {
          "internalType": "address",
          "name": "owner",
          "type": "address"
        },
        {
          "internalType": "address",
          "name": "spender",
          "type": "address"
        },
        {
          "internalType": "uint256",
          "name": "value",
          "type": "uint256"
        },
        {
          "internalType": "uint256",
          "name": "deadline",
          "type": "uint256"
        },
        {
          "internalType": "uint8",
          "name": "v",
          "type": "uint8"
        },
        {
          "internalType": "bytes32",
          "name": "r",
          "type": "bytes32"
        },
        {
          "internalType": "bytes32",
          "name": "s",
          "type": "bytes32"
        }
      ],
      "name": "permit",
      "outputs": [],
      "stateMutability": "nonpayable",
      "type": "function"
    },
    {
      "inputs": [],
      "name": "renounceOwnership",
      "outputs": [],
      "stateMutability": "nonpayable",
      "type": "function"
    },
    {
      "inputs": [],
      "name": "snapshot",
      "outputs": [],
      "stateMutability": "nonpayable",
      "type": "function"
    },
    {
      "inputs": [],
      "name": "symbol",
      "outputs": [
        {
          "internalType": "string",
          "name": "",
          "type": "string"
        }
      ],
      "stateMutability": "view",
      "type": "function"
    },
    {
      "inputs": [],
      "name": "totalSupply",
      "outputs": [
        {
          "internalType": "uint256",
          "name": "",
          "type": "uint256"
        }
      ],
      "stateMutability": "view",
      "type": "function"
    },
    {
      "inputs": [
        {
          "internalType": "uint256",
          "name": "snapshotId",
          "type": "uint256"
        }
      ],
      "name": "totalSupplyAt",
      "outputs": [
        {
          "internalType": "uint256",
          "name": "",
          "type": "uint256"
        }
      ],
      "stateMutability": "view",
      "type": "function"
    },
    {
      "inputs": [
        {
          "internalType": "address",
          "name": "to",
          "type": "address"
        },
        {
          "internalType": "uint256",
          "name": "amount",
          "type": "uint256"
        }
      ],
      "name": "transfer",
      "outputs": [
        {
          "internalType": "bool",
          "name": "",
          "type": "bool"
        }
      ],
      "stateMutability": "nonpayable",
      "type": "function"
    },
    {
      "inputs": [
        {
          "internalType": "address",
          "name": "from",
          "type": "address"
        },
        {
          "internalType": "address",
          "name": "to",
          "type": "address"
        },
        {
          "internalType": "uint256",
          "name": "amount",
          "type": "uint256"
        }
      ],
      "name": "transferFrom",
      "outputs": [
        {
          "internalType": "bool",
          "name": "",
          "type": "bool"
        }
      ],
      "stateMutability": "nonpayable",
      "type": "function"
    },
    {
      "inputs": [
        {
          "internalType": "address",
          "name": "newOwner",
          "type": "address"
        }
      ],
      "name": "transferOwnership",
      "outputs": [],
      "stateMutability": "nonpayable",
      "type": "function"
    }
  ],
  "bytecode": "0x6101406040523480156200001257600080fd5b506040518060400160405280600781526020016626bcaa37b5b2b760c91b81525080604051806040016040528060018152602001603160f81b8152506040518060400160405280600781526020016626bcaa37b5b2b760c91b815250604051806040016040528060038152602001624d544b60e81b8152508160039080519060200190620000a292919062000157565b508051620000b890600490602084019062000157565b5050825160208085019190912083518483012060e08290526101008190524660a0818152604080517f8b73c3c69bb8fe3d512ecc4cf759cc79239f7b179b0ffacaa9a75d522b39400f81880181905281830187905260608201869052608082019490945230818401528151808203909301835260c0019052805194019390932091935091906080523060601b60c05261012052506200023a9350505050565b8280546200016590620001fd565b90600052602060002090601f016020900481019282620001895760008555620001d4565b82601f10620001a457805160ff1916838001178555620001d4565b82800160010185558215620001d4579182015b82811115620001d4578251825591602001919060010190620001b7565b50620001e2929150620001e6565b5090565b5b80821115620001e25760008155600101620001e7565b600181811c908216806200021257607f821691505b602082108114156200023457634e487b7160e01b600052602260045260246000fd5b50919050565b60805160a05160c05160601c60e05161010051610120516126206200028d6000396000611273015260006112c20152600061129d015260006111f6015260006112200152600061124a01526126206000f3fe608060405234801561001057600080fd5b50600436106101e55760003560e01c8063715018a61161010f5780639ab24eb0116100a2578063d505accf11610071578063d505accf14610431578063dd62ed3e14610444578063f1127ed81461047d578063f2fde38b146104ba57600080fd5b80639ab24eb0146103e5578063a457c2d7146103f8578063a9059cbb1461040b578063c3cda5201461041e57600080fd5b80638e539e8c116100de5780638e539e8c146103af57806395d89b41146103c25780639711715a146103ca578063981b24d0146103d257600080fd5b8063715018a61461037057806379cc6790146103785780637ecebe001461038b5780638da5cb5b1461039e57600080fd5b80633a46b1a811610187578063587cde1e11610156578063587cde1e146102c85780635c19a95c1461030c5780636fcfff451461031f57806370a082311461034757600080fd5b80633a46b1a81461027a57806340c10f191461028d57806342966c68146102a25780634ee2cd7e146102b557600080fd5b806323b872dd116101c357806323b872dd1461023d578063313ce567146102505780633644e5151461025f578063395093511461026757600080fd5b806306fdde03146101ea578063095ea7b31461020857806318160ddd1461022b575b600080fd5b6101f26104cd565b6040516101ff91906124cd565b60405180910390f35b61021b6102163660046123f2565b61055f565b60405190151581526020016101ff565b6002545b6040519081526020016101ff565b61021b61024b36600461234c565b610579565b604051601281526020016101ff565b61022f61059d565b61021b6102753660046123f2565b6105ac565b61022f6102883660046123f2565b6105eb565b6102a061029b3660046123f2565b61066a565b005b6102a06102b03660046124b4565b610678565b61022f6102c33660046123f2565b610685565b6102f46102d63660046122fe565b6001600160a01b039081166000908152600c60205260409020541690565b6040516001600160a01b0390911681526020016101ff565b6102a061031a3660046122fe565b6106de565b61033261032d3660046122fe565b6106e8565b60405163ffffffff90911681526020016101ff565b61022f6103553660046122fe565b6001600160a01b031660009081526020819052604090205490565b6102a061070a565b6102a06103863660046123f2565b610770565b61022f6103993660046122fe565b610785565b6009546001600160a01b03166102f4565b61022f6103bd3660046124b4565b6107a3565b6101f26107ff565b6102a061080e565b61022f6103e03660046124b4565b610870565b61022f6103f33660046122fe565b61089b565b61021b6104063660046123f2565b610922565b61021b6104193660046123f2565b6109cc565b6102a061042c36600461241c565b6109da565b6102a061043f366004612388565b610b10565b61022f610452366004612319565b6001600160a01b03918216600090815260016020908152604080832093909416825291909152205490565b61049061048b366004612474565b610c74565b60408051825163ffffffff1681526020928301516001600160e01b031692810192909252016101ff565b6102a06104c83660046122fe565b610cf8565b6060600380546104dc90612573565b80601f016020809104026020016040519081016040528092919081815260200182805461050890612573565b80156105555780601f1061052a57610100808354040283529160200191610555565b820191906000526020600020905b81548152906001019060200180831161053857829003601f168201915b5050505050905090565b60003361056d818585610dd7565b60019150505b92915050565b600033610587858285610f2f565b610592858585610fc1565b506001949350505050565b60006105a76111e9565b905090565b3360008181526001602090815260408083206001600160a01b038716845290915281205490919061056d90829086906105e6908790612522565b610dd7565b60004382106106415760405162461bcd60e51b815260206004820152601f60248201527f4552433230566f7465733a20626c6f636b206e6f7420796574206d696e65640060448201526064015b60405180910390fd5b6001600160a01b0383166000908152600d602052604090206106639083611310565b9392505050565b61067482826113cd565b5050565b61068233826113d7565b50565b6001600160a01b0382166000908152600560205260408120819081906106ac9085906113e1565b91509150816106d3576001600160a01b0385166000908152602081905260409020546106d5565b805b95945050505050565b61068233826114df565b6001600160a01b0381166000908152600d602052604081205461057390611565565b6009546001600160a01b031633146107645760405162461bcd60e51b815260206004820181905260248201527f4f776e61626c653a2063616c6c6572206973206e6f7420746865206f776e65726044820152606401610638565b61076e60006115e5565b565b61077b823383610f2f565b61067482826113d7565b6001600160a01b0381166000908152600a6020526040812054610573565b60004382106107f45760405162461bcd60e51b815260206004820152601f60248201527f4552433230566f7465733a20626c6f636b206e6f7420796574206d696e6564006044820152606401610638565b610573600e83611310565b6060600480546104dc90612573565b6009546001600160a01b031633146108685760405162461bcd60e51b815260206004820181905260248201527f4f776e61626c653a2063616c6c6572206973206e6f7420746865206f776e65726044820152606401610638565b610682611644565b60008060006108808460066113e1565b915091508161089157600254610893565b805b949350505050565b6001600160a01b0381166000908152600d6020526040812054801561090f576001600160a01b0383166000908152600d602052604090206108dd60018361255c565b815481106108ed576108ed6125d4565b60009182526020909120015464010000000090046001600160e01b0316610912565b60005b6001600160e01b03169392505050565b3360008181526001602090815260408083206001600160a01b0387168452909152812054909190838110156109bf5760405162461bcd60e51b815260206004820152602560248201527f45524332303a2064656372656173656420616c6c6f77616e63652062656c6f7760448201527f207a65726f0000000000000000000000000000000000000000000000000000006064820152608401610638565b6105928286868403610dd7565b60003361056d818585610fc1565b83421115610a2a5760405162461bcd60e51b815260206004820152601d60248201527f4552433230566f7465733a207369676e617475726520657870697265640000006044820152606401610638565b604080517fe48329057bfd03d55e49b547132e39cffd9c1820ad7b9d4c5307691425d15adf60208201526001600160a01b038816918101919091526060810186905260808101859052600090610aa490610a9c9060a0016040516020818303038152906040528051906020012061169e565b858585611707565b9050610aaf8161172f565b8614610afd5760405162461bcd60e51b815260206004820152601960248201527f4552433230566f7465733a20696e76616c6964206e6f6e6365000000000000006044820152606401610638565b610b0781886114df565b50505050505050565b83421115610b605760405162461bcd60e51b815260206004820152601d60248201527f45524332305065726d69743a206578706972656420646561646c696e650000006044820152606401610638565b60007f6e71edae12b1b97f4d1f60370fef10105fa2faae0126114a169c64845d6126c9888888610b8f8c61172f565b6040805160208101969096526001600160a01b0394851690860152929091166060840152608083015260a082015260c0810186905260e0016040516020818303038152906040528051906020012090506000610bea8261169e565b90506000610bfa82878787611707565b9050896001600160a01b0316816001600160a01b031614610c5d5760405162461bcd60e51b815260206004820152601e60248201527f45524332305065726d69743a20696e76616c6964207369676e617475726500006044820152606401610638565b610c688a8a8a610dd7565b50505050505050505050565b60408051808201909152600080825260208201526001600160a01b0383166000908152600d60205260409020805463ffffffff8416908110610cb857610cb86125d4565b60009182526020918290206040805180820190915291015463ffffffff8116825264010000000090046001600160e01b0316918101919091529392505050565b6009546001600160a01b03163314610d525760405162461bcd60e51b815260206004820181905260248201527f4f776e61626c653a2063616c6c6572206973206e6f7420746865206f776e65726044820152606401610638565b6001600160a01b038116610dce5760405162461bcd60e51b815260206004820152602660248201527f4f776e61626c653a206e6577206f776e657220697320746865207a65726f206160448201527f64647265737300000000000000000000000000000000000000000000000000006064820152608401610638565b610682816115e5565b6001600160a01b038316610e525760405162461bcd60e51b8152602060048201526024808201527f45524332303a20617070726f76652066726f6d20746865207a65726f2061646460448201527f72657373000000000000000000000000000000000000000000000000000000006064820152608401610638565b6001600160a01b038216610ece5760405162461bcd60e51b815260206004820152602260248201527f45524332303a20617070726f766520746f20746865207a65726f20616464726560448201527f73730000000000000000000000000000000000000000000000000000000000006064820152608401610638565b6001600160a01b0383811660008181526001602090815260408083209487168084529482529182902085905590518481527f8c5be1e5ebec7d5bd14f71427d1e84f3dd0314c0f7b2291e5b200ac8c7c3b925910160405180910390a3505050565b6001600160a01b038381166000908152600160209081526040808320938616835292905220546000198114610fbb5781811015610fae5760405162461bcd60e51b815260206004820152601d60248201527f45524332303a20696e73756666696369656e7420616c6c6f77616e63650000006044820152606401610638565b610fbb8484848403610dd7565b50505050565b6001600160a01b03831661103d5760405162461bcd60e51b815260206004820152602560248201527f45524332303a207472616e736665722066726f6d20746865207a65726f20616460448201527f64726573730000000000000000000000000000000000000000000000000000006064820152608401610638565b6001600160a01b0382166110b95760405162461bcd60e51b815260206004820152602360248201527f45524332303a207472616e7366657220746f20746865207a65726f206164647260448201527f65737300000000000000000000000000000000000000000000000000000000006064820152608401610638565b6110c4838383611757565b6001600160a01b038316600090815260208190526040902054818110156111535760405162461bcd60e51b815260206004820152602660248201527f45524332303a207472616e7366657220616d6f756e742065786365656473206260448201527f616c616e636500000000000000000000000000000000000000000000000000006064820152608401610638565b6001600160a01b0380851660009081526020819052604080822085850390559185168152908120805484929061118a908490612522565b92505081905550826001600160a01b0316846001600160a01b03167fddf252ad1be2c89b69c2b068fc378daa952ba7f163c4a11628f55a4df523b3ef846040516111d691815260200190565b60405180910390a3610fbb848484611767565b6000306001600160a01b037f00000000000000000000000000000000000000000000000000000000000000001614801561124257507f000000000000000000000000000000000000000000000000000000000000000046145b1561126c57507f000000000000000000000000000000000000000000000000000000000000000090565b50604080517f00000000000000000000000000000000000000000000000000000000000000006020808301919091527f0000000000000000000000000000000000000000000000000000000000000000828401527f000000000000000000000000000000000000000000000000000000000000000060608301524660808301523060a0808401919091528351808403909101815260c0909201909252805191012090565b8154600090815b8181101561137457600061132b8284611772565b905084868281548110611340576113406125d4565b60009182526020909120015463ffffffff1611156113605780925061136e565b61136b816001612522565b91505b50611317565b81156113b8578461138660018461255c565b81548110611396576113966125d4565b60009182526020909120015464010000000090046001600160e01b03166113bb565b60005b6001600160e01b031695945050505050565b610674828261178d565b6106748282611824565b600080600084116114345760405162461bcd60e51b815260206004820152601660248201527f4552433230536e617073686f743a2069642069732030000000000000000000006044820152606401610638565b61143c61183c565b84111561148b5760405162461bcd60e51b815260206004820152601d60248201527f4552433230536e617073686f743a206e6f6e6578697374656e742069640000006044820152606401610638565b60006114978486611847565b84549091508114156114b05760008092509250506114d8565b60018460010182815481106114c7576114c76125d4565b906000526020600020015492509250505b9250929050565b6001600160a01b038281166000818152600c602081815260408084208054858452828620549490935287871673ffffffffffffffffffffffffffffffffffffffff198416811790915590519190951694919391928592917f3134e8a2e6d97e929a7e54011ea5485d7d196dd5f0ba4d4ef95803e8e3fc257f9190a4610fbb82848361190a565b600063ffffffff8211156115e15760405162461bcd60e51b815260206004820152602660248201527f53616665436173743a2076616c756520646f65736e27742066697420696e203360448201527f32206269747300000000000000000000000000000000000000000000000000006064820152608401610638565b5090565b600980546001600160a01b0383811673ffffffffffffffffffffffffffffffffffffffff19831681179093556040519116919082907f8be0079c531659141344cd1fd0a4f28419497f9722a3daafe3b4186f6b6457e090600090a35050565b6000611654600880546001019055565b600061165e61183c565b90507f8030e83b04d87bef53480e26263266d6ca66863aa8506aca6f2559d18aa1cb678160405161169191815260200190565b60405180910390a1919050565b60006105736116ab6111e9565b836040517f19010000000000000000000000000000000000000000000000000000000000006020820152602281018390526042810182905260009060620160405160208183030381529060405280519060200120905092915050565b600080600061171887878787611a47565b9150915061172581611b34565b5095945050505050565b6001600160a01b0381166000908152600a602052604090208054600181018255905b50919050565b611762838383611cef565b505050565b611762838383611d37565b6000611781600284841861253a565b61066390848416612522565b6117978282611d69565b6002546001600160e01b0310156118165760405162461bcd60e51b815260206004820152603060248201527f4552433230566f7465733a20746f74616c20737570706c79207269736b73206f60448201527f766572666c6f77696e6720766f746573000000000000000000000000000000006064820152608401610638565b610fbb600e611e5c83611e68565b61182e8282611fe1565b610fbb600e61217983611e68565b60006105a760085490565b815460009061185857506000610573565b82546000905b808210156118b45760006118728383611772565b905084868281548110611887576118876125d4565b906000526020600020015411156118a0578091506118ae565b6118ab816001612522565b92505b5061185e565b6000821180156118e9575083856118cc60018561255c565b815481106118dc576118dc6125d4565b9060005260206000200154145b15611902576118f960018361255c565b92505050610573565b509050610573565b816001600160a01b0316836001600160a01b03161415801561192c5750600081115b15611762576001600160a01b038316156119ba576001600160a01b0383166000908152600d6020526040812081906119679061217985611e68565b91509150846001600160a01b03167fdec2bacdd2f05b59de34da9b523dff8be42e5e38e818c82fdb0bae774387a72483836040516119af929190918252602082015260400190565b60405180910390a250505b6001600160a01b03821615611762576001600160a01b0382166000908152600d6020526040812081906119f090611e5c85611e68565b91509150836001600160a01b03167fdec2bacdd2f05b59de34da9b523dff8be42e5e38e818c82fdb0bae774387a7248383604051611a38929190918252602082015260400190565b60405180910390a25050505050565b6000807f7fffffffffffffffffffffffffffffff5d576e7357a4501ddfe92f46681b20a0831115611a7e5750600090506003611b2b565b8460ff16601b14158015611a9657508460ff16601c14155b15611aa75750600090506004611b2b565b6040805160008082526020820180845289905260ff881692820192909252606081018690526080810185905260019060a0016020604051602081039080840390855afa158015611afb573d6000803e3d6000fd5b5050604051601f1901519150506001600160a01b038116611b2457600060019250925050611b2b565b9150600090505b94509492505050565b6000816004811115611b4857611b486125be565b1415611b515750565b6001816004811115611b6557611b656125be565b1415611bb35760405162461bcd60e51b815260206004820152601860248201527f45434453413a20696e76616c6964207369676e617475726500000000000000006044820152606401610638565b6002816004811115611bc757611bc76125be565b1415611c155760405162461bcd60e51b815260206004820152601f60248201527f45434453413a20696e76616c6964207369676e6174757265206c656e677468006044820152606401610638565b6003816004811115611c2957611c296125be565b1415611c825760405162461bcd60e51b815260206004820152602260248201527f45434453413a20696e76616c6964207369676e6174757265202773272076616c604482015261756560f01b6064820152608401610638565b6004816004811115611c9657611c966125be565b14156106825760405162461bcd60e51b815260206004820152602260248201527f45434453413a20696e76616c6964207369676e6174757265202776272076616c604482015261756560f01b6064820152608401610638565b6001600160a01b038316611d0e57611d0682612185565b6117626121b7565b6001600160a01b038216611d2557611d0683612185565b611d2e83612185565b61176282612185565b6001600160a01b038381166000908152600c60205260408082205485841683529120546117629291821691168361190a565b6001600160a01b038216611dbf5760405162461bcd60e51b815260206004820152601f60248201527f45524332303a206d696e7420746f20746865207a65726f2061646472657373006044820152606401610638565b611dcb60008383611757565b8060026000828254611ddd9190612522565b90915550506001600160a01b03821660009081526020819052604081208054839290611e0a908490612522565b90915550506040518181526001600160a01b038316906000907fddf252ad1be2c89b69c2b068fc378daa952ba7f163c4a11628f55a4df523b3ef9060200160405180910390a361067460008383611767565b60006106638284612522565b825460009081908015611eb35785611e8160018361255c565b81548110611e9157611e916125d4565b60009182526020909120015464010000000090046001600160e01b0316611eb6565b60005b6001600160e01b03169250611ecf83858763ffffffff16565b9150600081118015611f0d57504386611ee960018461255c565b81548110611ef957611ef96125d4565b60009182526020909120015463ffffffff16145b15611f6d57611f1b826121c5565b86611f2760018461255c565b81548110611f3757611f376125d4565b9060005260206000200160000160046101000a8154816001600160e01b0302191690836001600160e01b03160217905550611fd8565b856040518060400160405280611f8243611565565b63ffffffff168152602001611f96856121c5565b6001600160e01b0390811690915282546001810184556000938452602093849020835194909301519091166401000000000263ffffffff909316929092179101555b50935093915050565b6001600160a01b03821661205d5760405162461bcd60e51b815260206004820152602160248201527f45524332303a206275726e2066726f6d20746865207a65726f2061646472657360448201527f73000000000000000000000000000000000000000000000000000000000000006064820152608401610638565b61206982600083611757565b6001600160a01b038216600090815260208190526040902054818110156120f85760405162461bcd60e51b815260206004820152602260248201527f45524332303a206275726e20616d6f756e7420657863656564732062616c616e60448201527f63650000000000000000000000000000000000000000000000000000000000006064820152608401610638565b6001600160a01b038316600090815260208190526040812083830390556002805484929061212790849061255c565b90915550506040518281526000906001600160a01b038516907fddf252ad1be2c89b69c2b068fc378daa952ba7f163c4a11628f55a4df523b3ef9060200160405180910390a361176283600084611767565b6000610663828461255c565b6001600160a01b038116600090815260056020908152604080832091839052909120546106829190612244565b612244565b61076e60066121b260025490565b60006001600160e01b038211156115e15760405162461bcd60e51b815260206004820152602760248201527f53616665436173743a2076616c756520646f65736e27742066697420696e203260448201527f32342062697473000000000000000000000000000000000000000000000000006064820152608401610638565b600061224e61183c565b90508061225a8461228e565b1015611762578254600180820185556000858152602080822090930193909355938401805494850181558252902090910155565b805460009061229f57506000919050565b815482906122af9060019061255c565b815481106122bf576122bf6125d4565b90600052602060002001549050919050565b919050565b80356001600160a01b03811681146122d157600080fd5b803560ff811681146122d157600080fd5b60006020828403121561231057600080fd5b610663826122d6565b6000806040838503121561232c57600080fd5b612335836122d6565b9150612343602084016122d6565b90509250929050565b60008060006060848603121561236157600080fd5b61236a846122d6565b9250612378602085016122d6565b9150604084013590509250925092565b600080600080600080600060e0888a0312156123a357600080fd5b6123ac886122d6565b96506123ba602089016122d6565b955060408801359450606088013593506123d6608089016122ed565b925060a0880135915060c0880135905092959891949750929550565b6000806040838503121561240557600080fd5b61240e836122d6565b946020939093013593505050565b60008060008060008060c0878903121561243557600080fd5b61243e876122d6565b9550602087013594506040870135935061245a606088016122ed565b92506080870135915060a087013590509295509295509295565b6000806040838503121561248757600080fd5b612490836122d6565b9150602083013563ffffffff811681146124a957600080fd5b809150509250929050565b6000602082840312156124c657600080fd5b5035919050565b600060208083528351808285015260005b818110156124fa578581018301518582016040015282016124de565b8181111561250c576000604083870101525b50601f01601f1916929092016040019392505050565b60008219821115612535576125356125a8565b500190565b60008261255757634e487b7160e01b600052601260045260246000fd5b500490565b60008282101561256e5761256e6125a8565b500390565b600181811c9082168061258757607f821691505b6020821081141561175157634e487b7160e01b600052602260045260246000fd5b634e487b7160e01b600052601160045260246000fd5b634e487b7160e01b600052602160045260246000fd5b634e487b7160e01b600052603260045260246000fdfea2646970667358221220d989a1aced7ad53726cf577106f0ff3bb587d5f38377a4960e03ae1367b45cc964736f6c63430008070033",
  "linkReferences": {},
  "deployedLinkReferences": {}
}