{
  "_format": "hh-sol-artifact-1",
  "contractName": "MyGovernor",
  "sourceName": "contracts/MyGovernor.sol",
  "abi": [
    {
      "inputs": [
        {
          "internalType": "contract IVotes",
          "name": "_token",
          "type": "address"
        },
        {
          "internalType": "contract TimelockController",
          "name": "_timelock",
          "type": "address"
        }
      ],
      "stateMutability": "nonpayable",
      "type": "constructor"
    },
    {
      "inputs": [],
      "name": "Empty",
      "type": "error"
    },
    {
      "anonymous": false,
      "inputs": [
        {
          "indexed": false,
          "internalType": "uint256",
          "name": "proposalId",
          "type": "uint256"
        }
      ],
      "name": "ProposalCanceled",
      "type": "event"
    },
    {
      "anonymous": false,
      "inputs": [
        {
          "indexed": false,
          "internalType": "uint256",
          "name": "proposalId",
          "type": "uint256"
        },
        {
          "indexed": false,
          "internalType": "address",
          "name": "proposer",
          "type": "address"
        },
        {
          "indexed": false,
          "internalType": "address[]",
          "name": "targets",
          "type": "address[]"
        },
        {
          "indexed": false,
          "internalType": "uint256[]",
          "name": "values",
          "type": "uint256[]"
        },
        {
          "indexed": false,
          "internalType": "string[]",
          "name": "signatures",
          "type": "string[]"
        },
        {
          "indexed": false,
          "internalType": "bytes[]",
          "name": "calldatas",
          "type": "bytes[]"
        },
        {
          "indexed": false,
          "internalType": "uint256",
          "name": "startBlock",
          "type": "uint256"
        },
        {
          "indexed": false,
          "internalType": "uint256",
          "name": "endBlock",
          "type": "uint256"
        },
        {
          "indexed": false,
          "internalType": "string",
          "name": "description",
          "type": "string"
        }
      ],
      "name": "ProposalCreated",
      "type": "event"
    },
    {
      "anonymous": false,
      "inputs": [
        {
          "indexed": false,
          "internalType": "uint256",
          "name": "proposalId",
          "type": "uint256"
        }
      ],
      "name": "ProposalExecuted",
      "type": "event"
    },
    {
      "anonymous": false,
      "inputs": [
        {
          "indexed": false,
          "internalType": "uint256",
          "name": "proposalId",
          "type": "uint256"
        },
        {
          "indexed": false,
          "internalType": "uint256",
          "name": "eta",
          "type": "uint256"
        }
      ],
      "name": "ProposalQueued",
      "type": "event"
    },
    {
      "anonymous": false,
      "inputs": [
        {
          "indexed": false,
          "internalType": "uint256",
          "name": "oldProposalThreshold",
          "type": "uint256"
        },
        {
          "indexed": false,
          "internalType": "uint256",
          "name": "newProposalThreshold",
          "type": "uint256"
        }
      ],
      "name": "ProposalThresholdSet",
      "type": "event"
    },
    {
      "anonymous": false,
      "inputs": [
        {
          "indexed": false,
          "internalType": "uint256",
          "name": "oldQuorumNumerator",
          "type": "uint256"
        },
        {
          "indexed": false,
          "internalType": "uint256",
          "name": "newQuorumNumerator",
          "type": "uint256"
        }
      ],
      "name": "QuorumNumeratorUpdated",
      "type": "event"
    },
    {
      "anonymous": false,
      "inputs": [
        {
          "indexed": false,
          "internalType": "address",
          "name": "oldTimelock",
          "type": "address"
        },
        {
          "indexed": false,
          "internalType": "address",
          "name": "newTimelock",
          "type": "address"
        }
      ],
      "name": "TimelockChange",
      "type": "event"
    },
    {
      "anonymous": false,
      "inputs": [
        {
          "indexed": true,
          "internalType": "address",
          "name": "voter",
          "type": "address"
        },
        {
          "indexed": false,
          "internalType": "uint256",
          "name": "proposalId",
          "type": "uint256"
        },
        {
          "indexed": false,
          "internalType": "uint8",
          "name": "support",
          "type": "uint8"
        },
        {
          "indexed": false,
          "internalType": "uint256",
          "name": "weight",
          "type": "uint256"
        },
        {
          "indexed": false,
          "internalType": "string",
          "name": "reason",
          "type": "string"
        }
      ],
      "name": "VoteCast",
      "type": "event"
    },
    {
      "anonymous": false,
      "inputs": [
        {
          "indexed": true,
          "internalType": "address",
          "name": "voter",
          "type": "address"
        },
        {
          "indexed": false,
          "internalType": "uint256",
          "name": "proposalId",
          "type": "uint256"
        },
        {
          "indexed": false,
          "internalType": "uint8",
          "name": "support",
          "type": "uint8"
        },
        {
          "indexed": false,
          "internalType": "uint256",
          "name": "weight",
          "type": "uint256"
        },
        {
          "indexed": false,
          "internalType": "string",
          "name": "reason",
          "type": "string"
        },
        {
          "indexed": false,
          "internalType": "bytes",
          "name": "params",
          "type": "bytes"
        }
      ],
      "name": "VoteCastWithParams",
      "type": "event"
    },
    {
      "anonymous": false,
      "inputs": [
        {
          "indexed": false,
          "internalType": "uint256",
          "name": "oldVotingDelay",
          "type": "uint256"
        },
        {
          "indexed": false,
          "internalType": "uint256",
          "name": "newVotingDelay",
          "type": "uint256"
        }
      ],
      "name": "VotingDelaySet",
      "type": "event"
    },
    {
      "anonymous": false,
      "inputs": [
        {
          "indexed": false,
          "internalType": "uint256",
          "name": "oldVotingPeriod",
          "type": "uint256"
        },
        {
          "indexed": false,
          "internalType": "uint256",
          "name": "newVotingPeriod",
          "type": "uint256"
        }
      ],
      "name": "VotingPeriodSet",
      "type": "event"
    },
    {
      "inputs": [],
      "name": "BALLOT_TYPEHASH",
      "outputs": [
        {
          "internalType": "bytes32",
          "name": "",
          "type": "bytes32"
        }
      ],
      "stateMutability": "view",
      "type": "function"
    },
    {
      "inputs": [],
      "name": "COUNTING_MODE",
      "outputs": [
        {
          "internalType": "string",
          "name": "",
          "type": "string"
        }
      ],
      "stateMutability": "pure",
      "type": "function"
    },
    {
      "inputs": [],
      "name": "EXTENDED_BALLOT_TYPEHASH",
      "outputs": [
        {
          "internalType": "bytes32",
          "name": "",
          "type": "bytes32"
        }
      ],
      "stateMutability": "view",
      "type": "function"
    },
    {
      "inputs": [
        {
          "internalType": "uint256",
          "name": "proposalId",
          "type": "uint256"
        },
        {
          "internalType": "uint8",
          "name": "support",
          "type": "uint8"
        }
      ],
      "name": "castVote",
      "outputs": [
        {
          "internalType": "uint256",
          "name": "",
          "type": "uint256"
        }
      ],
      "stateMutability": "nonpayable",
      "type": "function"
    },
    {
      "inputs": [
        {
          "internalType": "uint256",
          "name": "proposalId",
          "type": "uint256"
        },
        {
          "internalType": "uint8",
          "name": "support",
          "type": "uint8"
        },
        {
          "internalType": "uint8",
          "name": "v",
          "type": "uint8"
        },
        {
          "internalType": "bytes32",
          "name": "r",
          "type": "bytes32"
        },
        {
          "internalType": "bytes32",
          "name": "s",
          "type": "bytes32"
        }
      ],
      "name": "castVoteBySig",
      "outputs": [
        {
          "internalType": "uint256",
          "name": "",
          "type": "uint256"
        }
      ],
      "stateMutability": "nonpayable",
      "type": "function"
    },
    {
      "inputs": [
        {
          "internalType": "uint256",
          "name": "proposalId",
          "type": "uint256"
        },
        {
          "internalType": "uint8",
          "name": "support",
          "type": "uint8"
        },
        {
          "internalType": "string",
          "name": "reason",
          "type": "string"
        }
      ],
      "name": "castVoteWithReason",
      "outputs": [
        {
          "internalType": "uint256",
          "name": "",
          "type": "uint256"
        }
      ],
      "stateMutability": "nonpayable",
      "type": "function"
    },
    {
      "inputs": [
        {
          "internalType": "uint256",
          "name": "proposalId",
          "type": "uint256"
        },
        {
          "internalType": "uint8",
          "name": "support",
          "type": "uint8"
        },
        {
          "internalType": "string",
          "name": "reason",
          "type": "string"
        },
        {
          "internalType": "bytes",
          "name": "params",
          "type": "bytes"
        }
      ],
      "name": "castVoteWithReasonAndParams",
      "outputs": [
        {
          "internalType": "uint256",
          "name": "",
          "type": "uint256"
        }
      ],
      "stateMutability": "nonpayable",
      "type": "function"
    },
    {
      "inputs": [
        {
          "internalType": "uint256",
          "name": "proposalId",
          "type": "uint256"
        },
        {
          "internalType": "uint8",
          "name": "support",
          "type": "uint8"
        },
        {
          "internalType": "string",
          "name": "reason",
          "type": "string"
        },
        {
          "internalType": "bytes",
          "name": "params",
          "type": "bytes"
        },
        {
          "internalType": "uint8",
          "name": "v",
          "type": "uint8"
        },
        {
          "internalType": "bytes32",
          "name": "r",
          "type": "bytes32"
        },
        {
          "internalType": "bytes32",
          "name": "s",
          "type": "bytes32"
        }
      ],
      "name": "castVoteWithReasonAndParamsBySig",
      "outputs": [
        {
          "internalType": "uint256",
          "name": "",
          "type": "uint256"
        }
      ],
      "stateMutability": "nonpayable",
      "type": "function"
    },
    {
      "inputs": [
        {
          "internalType": "address[]",
          "name": "targets",
          "type": "address[]"
        },
        {
          "internalType": "uint256[]",
          "name": "values",
          "type": "uint256[]"
        },
        {
          "internalType": "bytes[]",
          "name": "calldatas",
          "type": "bytes[]"
        },
        {
          "internalType": "bytes32",
          "name": "descriptionHash",
          "type": "bytes32"
        }
      ],
      "name": "execute",
      "outputs": [
        {
          "internalType": "uint256",
          "name": "",
          "type": "uint256"
        }
      ],
      "stateMutability": "payable",
      "type": "function"
    },
    {
      "inputs": [
        {
          "internalType": "address",
          "name": "account",
          "type": "address"
        },
        {
          "internalType": "uint256",
          "name": "blockNumber",
          "type": "uint256"
        }
      ],
      "name": "getVotes",
      "outputs": [
        {
          "internalType": "uint256",
          "name": "",
          "type": "uint256"
        }
      ],
      "stateMutability": "view",
      "type": "function"
    },
    {
      "inputs": [
        {
          "internalType": "address",
          "name": "account",
          "type": "address"
        },
        {
          "internalType": "uint256",
          "name": "blockNumber",
          "type": "uint256"
        },
        {
          "internalType": "bytes",
          "name": "params",
          "type": "bytes"
        }
      ],
      "name": "getVotesWithParams",
      "outputs": [
        {
          "internalType": "uint256",
          "name": "",
          "type": "uint256"
        }
      ],
      "stateMutability": "view",
      "type": "function"
    },
    {
      "inputs": [
        {
          "internalType": "uint256",
          "name": "proposalId",
          "type": "uint256"
        },
        {
          "internalType": "address",
          "name": "account",
          "type": "address"
        }
      ],
      "name": "hasVoted",
      "outputs": [
        {
          "internalType": "bool",
          "name": "",
          "type": "bool"
        }
      ],
      "stateMutability": "view",
      "type": "function"
    },
    {
      "inputs": [
        {
          "internalType": "address[]",
          "name": "targets",
          "type": "address[]"
        },
        {
          "internalType": "uint256[]",
          "name": "values",
          "type": "uint256[]"
        },
        {
          "internalType": "bytes[]",
          "name": "calldatas",
          "type": "bytes[]"
        },
        {
          "internalType": "bytes32",
          "name": "descriptionHash",
          "type": "bytes32"
        }
      ],
      "name": "hashProposal",
      "outputs": [
        {
          "internalType": "uint256",
          "name": "",
          "type": "uint256"
        }
      ],
      "stateMutability": "pure",
      "type": "function"
    },
    {
      "inputs": [],
      "name": "name",
      "outputs": [
        {
          "internalType": "string",
          "name": "",
          "type": "string"
        }
      ],
      "stateMutability": "view",
      "type": "function"
    },
    {
      "inputs": [
        {
          "internalType": "address",
          "name": "",
          "type": "address"
        },
        {
          "internalType": "address",
          "name": "",
          "type": "address"
        },
        {
          "internalType": "uint256[]",
          "name": "",
          "type": "uint256[]"
        },
        {
          "internalType": "uint256[]",
          "name": "",
          "type": "uint256[]"
        },
        {
          "internalType": "bytes",
          "name": "",
          "type": "bytes"
        }
      ],
      "name": "onERC1155BatchReceived",
      "outputs": [
        {
          "internalType": "bytes4",
          "name": "",
          "type": "bytes4"
        }
      ],
      "stateMutability": "nonpayable",
      "type": "function"
    },
    {
      "inputs": [
        {
          "internalType": "address",
          "name": "",
          "type": "address"
        },
        {
          "internalType": "address",
          "name": "",
          "type": "address"
        },
        {
          "internalType": "uint256",
          "name": "",
          "type": "uint256"
        },
        {
          "internalType": "uint256",
          "name": "",
          "type": "uint256"
        },
        {
          "internalType": "bytes",
          "name": "",
          "type": "bytes"
        }
      ],
      "name": "onERC1155Received",
      "outputs": [
        {
          "internalType": "bytes4",
          "name": "",
          "type": "bytes4"
        }
      ],
      "stateMutability": "nonpayable",
      "type": "function"
    },
    {
      "inputs": [
        {
          "internalType": "address",
          "name": "",
          "type": "address"
        },
        {
          "internalType": "address",
          "name": "",
          "type": "address"
        },
        {
          "internalType": "uint256",
          "name": "",
          "type": "uint256"
        },
        {
          "internalType": "bytes",
          "name": "",
          "type": "bytes"
        }
      ],
      "name": "onERC721Received",
      "outputs": [
        {
          "internalType": "bytes4",
          "name": "",
          "type": "bytes4"
        }
      ],
      "stateMutability": "nonpayable",
      "type": "function"
    },
    {
      "inputs": [
        {
          "internalType": "uint256",
          "name": "proposalId",
          "type": "uint256"
        }
      ],
      "name": "proposalDeadline",
      "outputs": [
        {
          "internalType": "uint256",
          "name": "",
          "type": "uint256"
        }
      ],
      "stateMutability": "view",
      "type": "function"
    },
    {
      "inputs": [
        {
          "internalType": "uint256",
          "name": "proposalId",
          "type": "uint256"
        }
      ],
      "name": "proposalEta",
      "outputs": [
        {
          "internalType": "uint256",
          "name": "",
          "type": "uint256"
        }
      ],
      "stateMutability": "view",
      "type": "function"
    },
    {
      "inputs": [
        {
          "internalType": "uint256",
          "name": "proposalId",
          "type": "uint256"
        }
      ],
      "name": "proposalSnapshot",
      "outputs": [
        {
          "internalType": "uint256",
          "name": "",
          "type": "uint256"
        }
      ],
      "stateMutability": "view",
      "type": "function"
    },
    {
      "inputs": [],
      "name": "proposalThreshold",
      "outputs": [
        {
          "internalType": "uint256",
          "name": "",
          "type": "uint256"
        }
      ],
      "stateMutability": "view",
      "type": "function"
    },
    {
      "inputs": [
        {
          "internalType": "uint256",
          "name": "proposalId",
          "type": "uint256"
        }
      ],
      "name": "proposalVotes",
      "outputs": [
        {
          "internalType": "uint256",
          "name": "againstVotes",
          "type": "uint256"
        },
        {
          "internalType": "uint256",
          "name": "forVotes",
          "type": "uint256"
        },
        {
          "internalType": "uint256",
          "name": "abstainVotes",
          "type": "uint256"
        }
      ],
      "stateMutability": "view",
      "type": "function"
    },
    {
      "inputs": [
        {
          "internalType": "address[]",
          "name": "targets",
          "type": "address[]"
        },
        {
          "internalType": "uint256[]",
          "name": "values",
          "type": "uint256[]"
        },
        {
          "internalType": "bytes[]",
          "name": "calldatas",
          "type": "bytes[]"
        },
        {
          "internalType": "string",
          "name": "description",
          "type": "string"
        }
      ],
      "name": "propose",
      "outputs": [
        {
          "internalType": "uint256",
          "name": "",
          "type": "uint256"
        }
      ],
      "stateMutability": "nonpayable",
      "type": "function"
    },
    {
      "inputs": [
        {
          "internalType": "address[]",
          "name": "targets",
          "type": "address[]"
        },
        {
          "internalType": "uint256[]",
          "name": "values",
          "type": "uint256[]"
        },
        {
          "internalType": "bytes[]",
          "name": "calldatas",
          "type": "bytes[]"
        },
        {
          "internalType": "bytes32",
          "name": "descriptionHash",
          "type": "bytes32"
        }
      ],
      "name": "queue",
      "outputs": [
        {
          "internalType": "uint256",
          "name": "",
          "type": "uint256"
        }
      ],
      "stateMutability": "nonpayable",
      "type": "function"
    },
    {
      "inputs": [
        {
          "internalType": "uint256",
          "name": "blockNumber",
          "type": "uint256"
        }
      ],
      "name": "quorum",
      "outputs": [
        {
          "internalType": "uint256",
          "name": "",
          "type": "uint256"
        }
      ],
      "stateMutability": "view",
      "type": "function"
    },
    {
      "inputs": [],
      "name": "quorumDenominator",
      "outputs": [
        {
          "internalType": "uint256",
          "name": "",
          "type": "uint256"
        }
      ],
      "stateMutability": "view",
      "type": "function"
    },
    {
      "inputs": [],
      "name": "quorumNumerator",
      "outputs": [
        {
          "internalType": "uint256",
          "name": "",
          "type": "uint256"
        }
      ],
      "stateMutability": "view",
      "type": "function"
    },
    {
      "inputs": [
        {
          "internalType": "address",
          "name": "target",
          "type": "address"
        },
        {
          "internalType": "uint256",
          "name": "value",
          "type": "uint256"
        },
        {
          "internalType": "bytes",
          "name": "data",
          "type": "bytes"
        }
      ],
      "name": "relay",
      "outputs": [],
      "stateMutability": "nonpayable",
      "type": "function"
    },
    {
      "inputs": [
        {
          "internalType": "uint256",
          "name": "newProposalThreshold",
          "type": "uint256"
        }
      ],
      "name": "setProposalThreshold",
      "outputs": [],
      "stateMutability": "nonpayable",
      "type": "function"
    },
    {
      "inputs": [
        {
          "internalType": "uint256",
          "name": "newVotingDelay",
          "type": "uint256"
        }
      ],
      "name": "setVotingDelay",
      "outputs": [],
      "stateMutability": "nonpayable",
      "type": "function"
    },
    {
      "inputs": [
        {
          "internalType": "uint256",
          "name": "newVotingPeriod",
          "type": "uint256"
        }
      ],
      "name": "setVotingPeriod",
      "outputs": [],
      "stateMutability": "nonpayable",
      "type": "function"
    },
    {
      "inputs": [
        {
          "internalType": "uint256",
          "name": "proposalId",
          "type": "uint256"
        }
      ],
      "name": "state",
      "outputs": [
        {
          "internalType": "enum IGovernor.ProposalState",
          "name": "",
          "type": "uint8"
        }
      ],
      "stateMutability": "view",
      "type": "function"
    },
    {
      "inputs": [
        {
          "internalType": "bytes4",
          "name": "interfaceId",
          "type": "bytes4"
        }
      ],
      "name": "supportsInterface",
      "outputs": [
        {
          "internalType": "bool",
          "name": "",
          "type": "bool"
        }
      ],
      "stateMutability": "view",
      "type": "function"
    },
    {
      "inputs": [],
      "name": "timelock",
      "outputs": [
        {
          "internalType": "address",
          "name": "",
          "type": "address"
        }
      ],
      "stateMutability": "view",
      "type": "function"
    },
    {
      "inputs": [],
      "name": "token",
      "outputs": [
        {
          "internalType": "contract IVotes",
          "name": "",
          "type": "address"
        }
      ],
      "stateMutability": "view",
      "type": "function"
    },
    {
      "inputs": [
        {
          "internalType": "uint256",
          "name": "newQuorumNumerator",
          "type": "uint256"
        }
      ],
      "name": "updateQuorumNumerator",
      "outputs": [],
      "stateMutability": "nonpayable",
      "type": "function"
    },
    {
      "inputs": [
        {
          "internalType": "contract TimelockController",
          "name": "newTimelock",
          "type": "address"
        }
      ],
      "name": "updateTimelock",
      "outputs": [],
      "stateMutability": "nonpayable",
      "type": "function"
    },
    {
      "inputs": [],
      "name": "version",
      "outputs": [
        {
          "internalType": "string",
          "name": "",
          "type": "string"
        }
      ],
      "stateMutability": "view",
      "type": "function"
    },
    {
      "inputs": [],
      "name": "votingDelay",
      "outputs": [
        {
          "internalType": "uint256",
          "name": "",
          "type": "uint256"
        }
      ],
      "stateMutability": "view",
      "type": "function"
    },
    {
      "inputs": [],
      "name": "votingPeriod",
      "outputs": [
        {
          "internalType": "uint256",
          "name": "",
          "type": "uint256"
        }
      ],
      "stateMutability": "view",
      "type": "function"
    },
    {
      "stateMutability": "payable",
      "type": "receive"
    }
  ],
  "bytecode": "0x6101606040523480156200001257600080fd5b506040516200425e3803806200425e833981016040819052620000359162000492565b80600483600161b2fa60006040518060400160405280600a81526020016926bca3b7bb32b93737b960b11b81525080620000746200017560201b60201c565b815160208084019190912082518383012060e08290526101008190524660a0818152604080517f8b73c3c69bb8fe3d512ecc4cf759cc79239f7b179b0ffacaa9a75d522b39400f81880181905281830187905260608201869052608082019490945230818401528151808203909301835260c00190528051940193909320919290916080523060601b60c05261012052505082516200011d9250600091506020840190620003ec565b506200012b90508362000190565b6200013682620001d1565b620001418162000278565b50505060601b6001600160601b031916610140526200016081620002b9565b506200016c8162000383565b50505062000527565b6040805180820190915260018152603160f81b602082015290565b60045460408051918252602082018390527fc565b045403dc03c2eea82b81a0465edad9e2e7fc4d97e11421c209da93d7a93910160405180910390a1600455565b60008111620002375760405162461bcd60e51b815260206004820152602760248201527f476f7665726e6f7253657474696e67733a20766f74696e6720706572696f6420604482015266746f6f206c6f7760c81b60648201526084015b60405180910390fd5b60055460408051918252602082018390527f7e3f7f0708a84de9203036abaa450dccc85ad5ff52f78c170f3edb55cf5e8828910160405180910390a1600555565b60065460408051918252602082018390527fccb45da8d5717e6c4544694297c4ba5cf151d455c9bb0ed4fc7a38411bc05461910160405180910390a1600655565b60648111156200033e5760405162461bcd60e51b815260206004820152604360248201527f476f7665726e6f72566f74657351756f72756d4672616374696f6e3a2071756f60448201527f72756d4e756d657261746f72206f7665722071756f72756d44656e6f6d696e616064820152623a37b960e91b608482015260a4016200022e565b600880549082905560408051828152602081018490527f0553476bf02ef2726e8ce5ced78d63e26e602e4a2257b1f559418e24b4633997910160405180910390a15050565b600954604080516001600160a01b03928316815291831660208301527f08f74ea46ef7894f65eabfb5e6e695de773a000b47c529ab559178069b226401910160405180910390a1600980546001600160a01b0319166001600160a01b0392909216919091179055565b828054620003fa90620004d1565b90600052602060002090601f0160209004810192826200041e576000855562000469565b82601f106200043957805160ff191683800117855562000469565b8280016001018555821562000469579182015b82811115620004695782518255916020019190600101906200044c565b50620004779291506200047b565b5090565b5b808211156200047757600081556001016200047c565b60008060408385031215620004a657600080fd5b8251620004b3816200050e565b6020840151909250620004c6816200050e565b809150509250929050565b600181811c90821680620004e657607f821691505b602082108114156200050857634e487b7160e01b600052602260045260246000fd5b50919050565b6001600160a01b03811681146200052457600080fd5b50565b60805160a05160c05160601c60e05161010051610120516101405160601c613cc8620005966000396000818161093201528181612118015261236901526000612558015260006125a701526000612582015260006124db015260006125050152600061252f0152613cc86000f3fe6080604052600436106102bf5760003560e01c80637d5e81e21161016e578063c59057e4116100cb578063eb9019d41161007f578063f23a6e6111610064578063f23a6e61146108bb578063f8ce560a14610900578063fc0c546a1461092057600080fd5b8063eb9019d41461087b578063ece40cc11461089b57600080fd5b8063dd4e2ba5116100b0578063dd4e2ba5146107e1578063deaaa7cc14610827578063ea0217cf1461085b57600080fd5b8063c59057e41461078f578063d33219b4146107af57600080fd5b8063ab58fb8e11610122578063bc197c8111610107578063bc197c811461070a578063c01f9e371461074f578063c28bc2fa1461076f57600080fd5b8063ab58fb8e146106d5578063b58131b0146106f557600080fd5b80639a802a6d116101535780639a802a6d14610680578063a7713a70146106a0578063a890c910146106b557600080fd5b80637d5e81e21461064c57806397c3d3341461066c57600080fd5b80633932abb11161021c57806354fd4d50116101d05780635f398a14116101b55780635f398a14146105ec57806370b0f6601461060c5780637b3c71d31461062c57600080fd5b806354fd4d501461058657806356781388146105cc57600080fd5b80633e4f49e6116102015780633e4f49e6146104ba57806343859632146104e7578063544ffc9c1461053157600080fd5b80633932abb1146104855780633bccf4fd1461049a57600080fd5b8063150b7a02116102735780632656227d116102585780632656227d1461041e5780632d63f693146104315780632fe3e2611461045157600080fd5b8063150b7a02146103a1578063160cbed7146103fe57600080fd5b806303420181116102a4578063034201811461033f57806306f3f9e61461035f57806306fdde031461037f57600080fd5b806301ffc9a7146102e757806302a251a31461031c57600080fd5b366102e257306102cd610954565b6001600160a01b0316146102e057600080fd5b005b600080fd5b3480156102f357600080fd5b5061030761030236600461347b565b61096d565b60405190151581526020015b60405180910390f35b34801561032857600080fd5b5061033161097e565b604051908152602001610313565b34801561034b57600080fd5b5061033161035a3660046135e3565b610989565b34801561036b57600080fd5b506102e061037a3660046134c2565b610a81565b34801561038b57600080fd5b50610394610b45565b6040516103139190613912565b3480156103ad57600080fd5b506103e56103bc366004613145565b7f150b7a0200000000000000000000000000000000000000000000000000000000949350505050565b6040516001600160e01b03199091168152602001610313565b34801561040a57600080fd5b506103316104193660046132fb565b610bd7565b61033161042c3660046132fb565b610e7a565b34801561043d57600080fd5b5061033161044c3660046134c2565b610fa1565b34801561045d57600080fd5b506103317fb3b3f3b703cd84ce352197dcff232b1b5d3cfb2025ce47cf04742d0651f1af8881565b34801561049157600080fd5b50610331610fda565b3480156104a657600080fd5b506103316104b536600461368a565b610fe5565b3480156104c657600080fd5b506104da6104d53660046134c2565b61105b565b60405161031391906138ea565b3480156104f357600080fd5b506103076105023660046134db565b60008281526007602090815260408083206001600160a01b038516845260030190915290205460ff1692915050565b34801561053d57600080fd5b5061056b61054c3660046134c2565b6000908152600760205260409020805460018201546002909201549092565b60408051938452602084019290925290820152606001610313565b34801561059257600080fd5b5060408051808201909152600181527f31000000000000000000000000000000000000000000000000000000000000006020820152610394565b3480156105d857600080fd5b506103316105e736600461350b565b611066565b3480156105f857600080fd5b50610331610607366004613579565b61108f565b34801561061857600080fd5b506102e06106273660046134c2565b6110d9565b34801561063857600080fd5b50610331610647366004613537565b611195565b34801561065857600080fd5b5061033161066736600461338b565b6111e7565b34801561067857600080fd5b506064610331565b34801561068c57600080fd5b5061033161069b3660046132a2565b6111fe565b3480156106ac57600080fd5b50600854610331565b3480156106c157600080fd5b506102e06106d03660046134a5565b611215565b3480156106e157600080fd5b506103316106f03660046134c2565b6112d1565b34801561070157600080fd5b50610331611393565b34801561071657600080fd5b506103e5610725366004613097565b7fbc197c810000000000000000000000000000000000000000000000000000000095945050505050565b34801561075b57600080fd5b5061033161076a3660046134c2565b61139e565b34801561077b57600080fd5b506102e061078a366004613246565b6113ce565b34801561079b57600080fd5b506103316107aa3660046132fb565b6114ca565b3480156107bb57600080fd5b506009546001600160a01b03165b6040516001600160a01b039091168152602001610313565b3480156107ed57600080fd5b506040805180820190915260208082527f737570706f72743d627261766f2671756f72756d3d666f722c6162737461696e90820152610394565b34801561083357600080fd5b506103317f150214d74d59b7d1e90c73fc22ef3d991dd0a76b046543d4d80ab92d2a50328f81565b34801561086757600080fd5b506102e06108763660046134c2565b611504565b34801561088757600080fd5b5061033161089636600461321a565b6115c0565b3480156108a757600080fd5b506102e06108b63660046134c2565b6115e1565b3480156108c757600080fd5b506103e56108d63660046131b1565b7ff23a6e610000000000000000000000000000000000000000000000000000000095945050505050565b34801561090c57600080fd5b5061033161091b3660046134c2565b61169d565b34801561092c57600080fd5b506107c97f000000000000000000000000000000000000000000000000000000000000000081565b60006109686009546001600160a01b031690565b905090565b6000610978826116a8565b92915050565b600061096860055490565b600080610a2d610a257fb3b3f3b703cd84ce352197dcff232b1b5d3cfb2025ce47cf04742d0651f1af888c8c8c8c6040516109c59291906137cd565b60405180910390208b80519060200120604051602001610a0a959493929190948552602085019390935260ff9190911660408401526060830152608082015260a00190565b604051602081830303815290604052805190602001206116e6565b86868661174f565b9050610a738a828b8b8b8080601f0160208091040260200160405190810160405280939291908181526020018383808284376000920191909152508d925061176d915050565b9a9950505050505050505050565b610a89610954565b6001600160a01b0316336001600160a01b031614610aee5760405162461bcd60e51b815260206004820152601860248201527f476f7665726e6f723a206f6e6c79476f7665726e616e6365000000000000000060448201526064015b60405180910390fd5b30610af7610954565b6001600160a01b031614610b395760008036604051610b179291906137cd565b604051809103902090505b80610b2d60026118ea565b14610b3757610b22565b505b610b42816119a7565b50565b606060008054610b5490613ba6565b80601f0160208091040260200160405190810160405280929190818152602001828054610b8090613ba6565b8015610bcd5780601f10610ba257610100808354040283529160200191610bcd565b820191906000526020600020905b815481529060010190602001808311610bb057829003601f168201915b5050505050905090565b600080610be6868686866114ca565b90506004610bf38261105b565b6007811115610c0457610c04613c12565b14610c5b5760405162461bcd60e51b815260206004820152602160248201527f476f7665726e6f723a2070726f706f73616c206e6f74207375636365737366756044820152601b60fa1b6064820152608401610ae5565b600954604080517ff27a0c9200000000000000000000000000000000000000000000000000000000815290516000926001600160a01b03169163f27a0c92916004808301926020929190829003018186803b158015610cb957600080fd5b505afa158015610ccd573d6000803e3d6000fd5b505050506040513d601f19601f82011682018060405250810190610cf19190613462565b6009546040517fb1c5f4270000000000000000000000000000000000000000000000000000000081529192506001600160a01b03169063b1c5f42790610d44908a908a908a906000908b90600401613844565b60206040518083038186803b158015610d5c57600080fd5b505afa158015610d70573d6000803e3d6000fd5b505050506040513d601f19601f82011682018060405250810190610d949190613462565b6000838152600a60205260408082209290925560095491517f8f2a0bb00000000000000000000000000000000000000000000000000000000081526001600160a01b0390921691638f2a0bb091610df8918b918b918b91908b908990600401613892565b600060405180830381600087803b158015610e1257600080fd5b505af1158015610e26573d6000803e3d6000fd5b505050507f9a2e42fd6722813d69113e7d0079d3d940171428df7373df9c7f7617cfda2892828242610e589190613ada565b6040805192835260208301919091520160405180910390a15095945050505050565b600080610e89868686866114ca565b90506000610e968261105b565b90506004816007811115610eac57610eac613c12565b1480610ec957506005816007811115610ec757610ec7613c12565b145b610f1f5760405162461bcd60e51b815260206004820152602160248201527f476f7665726e6f723a2070726f706f73616c206e6f74207375636365737366756044820152601b60fa1b6064820152608401610ae5565b600082815260016020818152604092839020600201805460ff191690921790915590518381527f712ae1383f79ac853f8d882153778e0260ef8f03b504e2866e0593e04d2b291f910160405180910390a1610f7d8288888888611a89565b610f8a8288888888611b2b565b610f978288888888611b38565b5095945050505050565b600081815260016020908152604080832081519283019091525467ffffffffffffffff16908190525b67ffffffffffffffff1692915050565b600061096860045490565b604080517f150214d74d59b7d1e90c73fc22ef3d991dd0a76b046543d4d80ab92d2a50328f602082015290810186905260ff85166060820152600090819061103390610a2590608001610a0a565b905061105087828860405180602001604052806000815250611b75565b979650505050505050565b600061097882611b98565b60008033905061108784828560405180602001604052806000815250611b75565b949350505050565b60008033905061105087828888888080601f0160208091040260200160405190810160405280939291908181526020018383808284376000920191909152508a925061176d915050565b6110e1610954565b6001600160a01b0316336001600160a01b0316146111415760405162461bcd60e51b815260206004820152601860248201527f476f7665726e6f723a206f6e6c79476f7665726e616e636500000000000000006044820152606401610ae5565b3061114a610954565b6001600160a01b03161461118c576000803660405161116a9291906137cd565b604051809103902090505b8061118060026118ea565b1461118a57611175565b505b610b4281611d32565b6000803390506111dd86828787878080601f016020809104026020016040519081016040528093929190818152602001838380828437600092019190915250611b7592505050565b9695505050505050565b60006111f585858585611d73565b95945050505050565b600061120b8484846120d6565b90505b9392505050565b61121d610954565b6001600160a01b0316336001600160a01b03161461127d5760405162461bcd60e51b815260206004820152601860248201527f476f7665726e6f723a206f6e6c79476f7665726e616e636500000000000000006044820152606401610ae5565b30611286610954565b6001600160a01b0316146112c857600080366040516112a69291906137cd565b604051809103902090505b806112bc60026118ea565b146112c6576112b1565b505b610b4281612194565b6009546000828152600a60205260408082205490517fd45c44350000000000000000000000000000000000000000000000000000000081526004810191909152909182916001600160a01b039091169063d45c44359060240160206040518083038186803b15801561134257600080fd5b505afa158015611356573d6000803e3d6000fd5b505050506040513d601f19601f8201168201806040525081019061137a9190613462565b90508060011461138a578061120e565b60009392505050565b600061096860065490565b600081815260016020818152604080842081519283019091529091015467ffffffffffffffff1690819052610fca565b6113d6610954565b6001600160a01b0316336001600160a01b0316146114365760405162461bcd60e51b815260206004820152601860248201527f476f7665726e6f723a206f6e6c79476f7665726e616e636500000000000000006044820152606401610ae5565b3061143f610954565b6001600160a01b031614611481576000803660405161145f9291906137cd565b604051809103902090505b8061147560026118ea565b1461147f5761146a565b505b6114c38483838080601f016020809104026020016040519081016040528093929190818152602001838380828437600092019190915250889250612215915050565b5050505050565b6000848484846040516020016114e394939291906137f9565b60408051601f19818403018152919052805160209091012095945050505050565b61150c610954565b6001600160a01b0316336001600160a01b03161461156c5760405162461bcd60e51b815260206004820152601860248201527f476f7665726e6f723a206f6e6c79476f7665726e616e636500000000000000006044820152606401610ae5565b30611575610954565b6001600160a01b0316146115b757600080366040516115959291906137cd565b604051809103902090505b806115ab60026118ea565b146115b5576115a0565b505b610b428161223b565b600061120e83836115dc60408051602081019091526000815290565b6120d6565b6115e9610954565b6001600160a01b0316336001600160a01b0316146116495760405162461bcd60e51b815260206004820152601860248201527f476f7665726e6f723a206f6e6c79476f7665726e616e636500000000000000006044820152606401610ae5565b30611652610954565b6001600160a01b03161461169457600080366040516116729291906137cd565b604051809103902090505b8061168860026118ea565b146116925761167d565b505b610b42816122f2565b600061097882612333565b60006001600160e01b031982167f6e665ced0000000000000000000000000000000000000000000000000000000014806109785750610978826123ff565b60006109786116f36124ce565b836040517f19010000000000000000000000000000000000000000000000000000000000006020820152602281018390526042810182905260009060620160405160208183030381529060405280519060200120905092915050565b6000806000611760878787876125f5565b91509150610f97816126e2565b60008581526001602081905260408220906117878861105b565b600781111561179857611798613c12565b1461180b5760405162461bcd60e51b815260206004820152602360248201527f476f7665726e6f723a20766f7465206e6f742063757272656e746c792061637460448201527f69766500000000000000000000000000000000000000000000000000000000006064820152608401610ae5565b6040805160208101909152815467ffffffffffffffff1690819052600090611835908890866120d6565b9050611844888888848861289d565b835161189657866001600160a01b03167fb8e138887d0aa13bab447e82de9d5c1777041ecd21ca36ba824ff1e6c07ddda4898884896040516118899493929190613a17565b60405180910390a2611050565b866001600160a01b03167fe2babfbac5889a709b63bb7f598b324e08bc5a4fb9ec647fb3cbc9ec07eb871289888489896040516118d7959493929190613a3f565b60405180910390a2979650505050505050565b60006119098254600f81810b810b600160801b909204810b900b131590565b15611940576040517f3db2a12a00000000000000000000000000000000000000000000000000000000815260040160405180910390fd5b508054600f90810b80820b820b600090815260018085016020526040822080549290558454920190920b6fffffffffffffffffffffffffffffffff167fffffffffffffffffffffffffffffffff000000000000000000000000000000009091161790915590565b6064811115611a445760405162461bcd60e51b815260206004820152604360248201527f476f7665726e6f72566f74657351756f72756d4672616374696f6e3a2071756f60448201527f72756d4e756d657261746f72206f7665722071756f72756d44656e6f6d696e6160648201527f746f720000000000000000000000000000000000000000000000000000000000608482015260a401610ae5565b600880549082905560408051828152602081018490527f0553476bf02ef2726e8ce5ced78d63e26e602e4a2257b1f559418e24b4633997910160405180910390a15050565b30611a92610954565b6001600160a01b0316146114c35760005b8451811015611b2357306001600160a01b0316858281518110611ac857611ac8613c28565b60200260200101516001600160a01b03161415611b1357611b13838281518110611af457611af4613c28565b6020026020010151805190602001206002612a3a90919063ffffffff16565b611b1c81613be1565b9050611aa3565b505050505050565b6114c38585858585612a89565b30611b41610954565b6001600160a01b0316146114c357600254600f81810b810b600160801b909204810b900b13156114c35760006002556114c3565b60006111f585858585611b9360408051602081019091526000815290565b61176d565b600080611ba483612b16565b90506004816007811115611bba57611bba613c12565b14611bc55792915050565b6000838152600a602052604090205480611be0575092915050565b6009546040517f2ab0f529000000000000000000000000000000000000000000000000000000008152600481018390526001600160a01b0390911690632ab0f5299060240160206040518083038186803b158015611c3d57600080fd5b505afa158015611c51573d6000803e3d6000fd5b505050506040513d601f19601f82011682018060405250810190611c759190613440565b15611c84575060079392505050565b6009546040517f584b153e000000000000000000000000000000000000000000000000000000008152600481018390526001600160a01b039091169063584b153e9060240160206040518083038186803b158015611ce157600080fd5b505afa158015611cf5573d6000803e3d6000fd5b505050506040513d601f19601f82011682018060405250810190611d199190613440565b15611d28575060059392505050565b5060029392505050565b60045460408051918252602082018390527fc565b045403dc03c2eea82b81a0465edad9e2e7fc4d97e11421c209da93d7a93910160405180910390a1600455565b6000611d7d611393565b611d8c33610896600143613b5f565b1015611e005760405162461bcd60e51b815260206004820152603160248201527f476f7665726e6f723a2070726f706f73657220766f7465732062656c6f77207060448201527f726f706f73616c207468726573686f6c640000000000000000000000000000006064820152608401610ae5565b6000611e1586868686805190602001206114ca565b90508451865114611e725760405162461bcd60e51b815260206004820152602160248201527f476f7665726e6f723a20696e76616c69642070726f706f73616c206c656e67746044820152600d60fb1b6064820152608401610ae5565b8351865114611ecd5760405162461bcd60e51b815260206004820152602160248201527f476f7665726e6f723a20696e76616c69642070726f706f73616c206c656e67746044820152600d60fb1b6064820152608401610ae5565b6000865111611f1e5760405162461bcd60e51b815260206004820152601860248201527f476f7665726e6f723a20656d7074792070726f706f73616c00000000000000006044820152606401610ae5565b6000818152600160209081526040918290208251918201909252815467ffffffffffffffff169081905215611fbb5760405162461bcd60e51b815260206004820152602160248201527f476f7665726e6f723a2070726f706f73616c20616c726561647920657869737460448201527f73000000000000000000000000000000000000000000000000000000000000006064820152608401610ae5565b6000611fcd611fc8610fda565b612c22565b611fd643612c22565b611fe09190613af2565b90506000611fef611fc861097e565b611ff99083613af2565b835467ffffffffffffffff191667ffffffffffffffff8416178455905060018301805467ffffffffffffffff191667ffffffffffffffff83161790557f7d84a6263ae0d98d3329bd7b46bb4e8d6f98cd35a7adb45c274c8b7fd5ebd5e084338b8b8d5167ffffffffffffffff81111561207457612074613c3e565b6040519080825280602002602001820160405280156120a757816020015b60608152602001906001900390816120925790505b508c88888e6040516120c199989796959493929190613925565b60405180910390a15091979650505050505050565b6040517f3a46b1a80000000000000000000000000000000000000000000000000000000081526001600160a01b038481166004830152602482018490526000917f000000000000000000000000000000000000000000000000000000000000000090911690633a46b1a89060440160206040518083038186803b15801561215c57600080fd5b505afa158015612170573d6000803e3d6000fd5b505050506040513d601f19601f8201168201806040525081019061120b9190613462565b600954604080516001600160a01b03928316815291831660208301527f08f74ea46ef7894f65eabfb5e6e695de773a000b47c529ab559178069b226401910160405180910390a1600980547fffffffffffffffffffffffff0000000000000000000000000000000000000000166001600160a01b0392909216919091179055565b606061120b848484604051806060016040528060298152602001613c6a60299139612ca6565b600081116122b15760405162461bcd60e51b815260206004820152602760248201527f476f7665726e6f7253657474696e67733a20766f74696e6720706572696f642060448201527f746f6f206c6f77000000000000000000000000000000000000000000000000006064820152608401610ae5565b60055460408051918252602082018390527f7e3f7f0708a84de9203036abaa450dccc85ad5ff52f78c170f3edb55cf5e8828910160405180910390a1600555565b60065460408051918252602082018390527fccb45da8d5717e6c4544694297c4ba5cf151d455c9bb0ed4fc7a38411bc05461910160405180910390a1600655565b600060646008546040517f8e539e8c000000000000000000000000000000000000000000000000000000008152600481018590527f00000000000000000000000000000000000000000000000000000000000000006001600160a01b031690638e539e8c9060240160206040518083038186803b1580156123b357600080fd5b505afa1580156123c7573d6000803e3d6000fd5b505050506040513d601f19601f820116820180604052508101906123eb9190613462565b6123f59190613b40565b6109789190613b1e565b60006001600160e01b031982167fbf26d89700000000000000000000000000000000000000000000000000000000148061246257506001600160e01b031982167f79dd796f00000000000000000000000000000000000000000000000000000000145b8061249657506001600160e01b031982167f4e2312e000000000000000000000000000000000000000000000000000000000145b8061097857507f01ffc9a7000000000000000000000000000000000000000000000000000000006001600160e01b0319831614610978565b6000306001600160a01b037f00000000000000000000000000000000000000000000000000000000000000001614801561252757507f000000000000000000000000000000000000000000000000000000000000000046145b1561255157507f000000000000000000000000000000000000000000000000000000000000000090565b50604080517f00000000000000000000000000000000000000000000000000000000000000006020808301919091527f0000000000000000000000000000000000000000000000000000000000000000828401527f000000000000000000000000000000000000000000000000000000000000000060608301524660808301523060a0808401919091528351808403909101815260c0909201909252805191012090565b6000807f7fffffffffffffffffffffffffffffff5d576e7357a4501ddfe92f46681b20a083111561262c57506000905060036126d9565b8460ff16601b1415801561264457508460ff16601c14155b1561265557506000905060046126d9565b6040805160008082526020820180845289905260ff881692820192909252606081018690526080810185905260019060a0016020604051602081039080840390855afa1580156126a9573d6000803e3d6000fd5b5050604051601f1901519150506001600160a01b0381166126d2576000600192509250506126d9565b9150600090505b94509492505050565b60008160048111156126f6576126f6613c12565b14156126ff5750565b600181600481111561271357612713613c12565b14156127615760405162461bcd60e51b815260206004820152601860248201527f45434453413a20696e76616c6964207369676e617475726500000000000000006044820152606401610ae5565b600281600481111561277557612775613c12565b14156127c35760405162461bcd60e51b815260206004820152601f60248201527f45434453413a20696e76616c6964207369676e6174757265206c656e677468006044820152606401610ae5565b60038160048111156127d7576127d7613c12565b14156128305760405162461bcd60e51b815260206004820152602260248201527f45434453413a20696e76616c6964207369676e6174757265202773272076616c604482015261756560f01b6064820152608401610ae5565b600481600481111561284457612844613c12565b1415610b425760405162461bcd60e51b815260206004820152602260248201527f45434453413a20696e76616c6964207369676e6174757265202776272076616c604482015261756560f01b6064820152608401610ae5565b60008581526007602090815260408083206001600160a01b0388168452600381019092529091205460ff161561293b5760405162461bcd60e51b815260206004820152602760248201527f476f7665726e6f72566f74696e6753696d706c653a20766f746520616c72656160448201527f64792063617374000000000000000000000000000000000000000000000000006064820152608401610ae5565b6001600160a01b03851660009081526003820160205260408120805460ff1916600117905560ff168460ff16141561298c57828160000160008282546129819190613ada565b90915550611b239050565b60ff8416600114156129ac57828160010160008282546129819190613ada565b60ff8416600214156129cc57828160020160008282546129819190613ada565b60405162461bcd60e51b815260206004820152603560248201527f476f7665726e6f72566f74696e6753696d706c653a20696e76616c696420766160448201527f6c756520666f7220656e756d20566f74655479706500000000000000000000006064820152608401610ae5565b8154600160801b90819004600f90810b80820b820b6000908152600180870160205260409091209490945584549301900b6fffffffffffffffffffffffffffffffff9081169091029116179055565b6009546040517fe38335e50000000000000000000000000000000000000000000000000000000081526001600160a01b039091169063e38335e5903490612add908890889088906000908990600401613844565b6000604051808303818588803b158015612af657600080fd5b505af1158015612b0a573d6000803e3d6000fd5b50505050505050505050565b6000818152600160205260408120600281015460ff1615612b3a5750600792915050565b6002810154610100900460ff1615612b555750600292915050565b6000612b6084610fa1565b905080612baf5760405162461bcd60e51b815260206004820152601d60248201527f476f7665726e6f723a20756e6b6e6f776e2070726f706f73616c2069640000006044820152606401610ae5565b438110612bc0575060009392505050565b6000612bcb8561139e565b9050438110612bdf57506001949350505050565b612be885612de3565b8015612c07575060008581526007602052604090208054600190910154115b15612c1757506004949350505050565b506003949350505050565b600067ffffffffffffffff821115612ca25760405162461bcd60e51b815260206004820152602660248201527f53616665436173743a2076616c756520646f65736e27742066697420696e203660448201527f34206269747300000000000000000000000000000000000000000000000000006064820152608401610ae5565b5090565b606082471015612d1e5760405162461bcd60e51b815260206004820152602660248201527f416464726573733a20696e73756666696369656e742062616c616e636520666f60448201527f722063616c6c00000000000000000000000000000000000000000000000000006064820152608401610ae5565b6001600160a01b0385163b612d755760405162461bcd60e51b815260206004820152601d60248201527f416464726573733a2063616c6c20746f206e6f6e2d636f6e74726163740000006044820152606401610ae5565b600080866001600160a01b03168587604051612d9191906137dd565b60006040518083038185875af1925050503d8060008114612dce576040519150601f19603f3d011682016040523d82523d6000602084013e612dd3565b606091505b5091509150611050828286612e1a565b600081815260076020526040812060028101546001820154612e059190613ada565b612e1161091b85610fa1565b11159392505050565b60608315612e2957508161120e565b825115612e395782518084602001fd5b8160405162461bcd60e51b8152600401610ae59190613912565b600067ffffffffffffffff831115612e6d57612e6d613c3e565b612e80601f8401601f1916602001613a85565b9050828152838383011115612e9457600080fd5b828260208301376000602084830101529392505050565b600082601f830112612ebc57600080fd5b81356020612ed1612ecc83613ab6565b613a85565b80838252828201915082860187848660051b8901011115612ef157600080fd5b60005b85811015612f19578135612f0781613c54565b84529284019290840190600101612ef4565b5090979650505050505050565b600082601f830112612f3757600080fd5b81356020612f47612ecc83613ab6565b80838252828201915082860187848660051b8901011115612f6757600080fd5b6000805b86811015612faa57823567ffffffffffffffff811115612f89578283fd5b612f978b88838d0101613061565b8652509385019391850191600101612f6b565b509198975050505050505050565b600082601f830112612fc957600080fd5b81356020612fd9612ecc83613ab6565b80838252828201915082860187848660051b8901011115612ff957600080fd5b60005b85811015612f1957813584529284019290840190600101612ffc565b60008083601f84011261302a57600080fd5b50813567ffffffffffffffff81111561304257600080fd5b60208301915083602082850101111561305a57600080fd5b9250929050565b600082601f83011261307257600080fd5b61120e83833560208501612e53565b803560ff8116811461309257600080fd5b919050565b600080600080600060a086880312156130af57600080fd5b85356130ba81613c54565b945060208601356130ca81613c54565b9350604086013567ffffffffffffffff808211156130e757600080fd5b6130f389838a01612fb8565b9450606088013591508082111561310957600080fd5b61311589838a01612fb8565b9350608088013591508082111561312b57600080fd5b5061313888828901613061565b9150509295509295909350565b6000806000806080858703121561315b57600080fd5b843561316681613c54565b9350602085013561317681613c54565b925060408501359150606085013567ffffffffffffffff81111561319957600080fd5b6131a587828801613061565b91505092959194509250565b600080600080600060a086880312156131c957600080fd5b85356131d481613c54565b945060208601356131e481613c54565b93506040860135925060608601359150608086013567ffffffffffffffff81111561320e57600080fd5b61313888828901613061565b6000806040838503121561322d57600080fd5b823561323881613c54565b946020939093013593505050565b6000806000806060858703121561325c57600080fd5b843561326781613c54565b935060208501359250604085013567ffffffffffffffff81111561328a57600080fd5b61329687828801613018565b95989497509550505050565b6000806000606084860312156132b757600080fd5b83356132c281613c54565b925060208401359150604084013567ffffffffffffffff8111156132e557600080fd5b6132f186828701613061565b9150509250925092565b6000806000806080858703121561331157600080fd5b843567ffffffffffffffff8082111561332957600080fd5b61333588838901612eab565b9550602087013591508082111561334b57600080fd5b61335788838901612fb8565b9450604087013591508082111561336d57600080fd5b5061337a87828801612f26565b949793965093946060013593505050565b600080600080608085870312156133a157600080fd5b843567ffffffffffffffff808211156133b957600080fd5b6133c588838901612eab565b955060208701359150808211156133db57600080fd5b6133e788838901612fb8565b945060408701359150808211156133fd57600080fd5b61340988838901612f26565b9350606087013591508082111561341f57600080fd5b508501601f8101871361343157600080fd5b6131a587823560208401612e53565b60006020828403121561345257600080fd5b8151801515811461120e57600080fd5b60006020828403121561347457600080fd5b5051919050565b60006020828403121561348d57600080fd5b81356001600160e01b03198116811461120e57600080fd5b6000602082840312156134b757600080fd5b813561120e81613c54565b6000602082840312156134d457600080fd5b5035919050565b600080604083850312156134ee57600080fd5b82359150602083013561350081613c54565b809150509250929050565b6000806040838503121561351e57600080fd5b8235915061352e60208401613081565b90509250929050565b6000806000806060858703121561354d57600080fd5b8435935061355d60208601613081565b9250604085013567ffffffffffffffff81111561328a57600080fd5b60008060008060006080868803121561359157600080fd5b853594506135a160208701613081565b9350604086013567ffffffffffffffff808211156135be57600080fd5b6135ca89838a01613018565b9095509350606088013591508082111561312b57600080fd5b60008060008060008060008060e0898b0312156135ff57600080fd5b8835975061360f60208a01613081565b9650604089013567ffffffffffffffff8082111561362c57600080fd5b6136388c838d01613018565b909850965060608b013591508082111561365157600080fd5b5061365e8b828c01613061565b94505061366d60808a01613081565b925060a0890135915060c089013590509295985092959890939650565b600080600080600060a086880312156136a257600080fd5b853594506136b260208701613081565b93506136c060408701613081565b94979396509394606081013594506080013592915050565b600081518084526020808501945080840160005b838110156137115781516001600160a01b0316875295820195908201906001016136ec565b509495945050505050565b600081518084526020808501808196508360051b8101915082860160005b858110156137645782840389526137528483516137a1565b9885019893509084019060010161373a565b5091979650505050505050565b600081518084526020808501945080840160005b8381101561371157815187529582019590820190600101613785565b600081518084526137b9816020860160208601613b76565b601f01601f19169290920160200192915050565b8183823760009101908152919050565b600082516137ef818460208701613b76565b9190910192915050565b60808152600061380c60808301876136d8565b828103602084015261381e8187613771565b90508281036040840152613832818661371c565b91505082606083015295945050505050565b60a08152600061385760a08301886136d8565b82810360208401526138698188613771565b9050828103604084015261387d818761371c565b60608401959095525050608001529392505050565b60c0815260006138a560c08301896136d8565b82810360208401526138b78189613771565b905082810360408401526138cb818861371c565b60608401969096525050608081019290925260a0909101529392505050565b602081016008831061390c57634e487b7160e01b600052602160045260246000fd5b91905290565b60208152600061120e60208301846137a1565b60006101208b835260206001600160a01b038c168185015281604085015261394f8285018c6136d8565b91508382036060850152613963828b613771565b915083820360808501528189518084528284019150828160051b850101838c0160005b838110156139b457601f198784030185526139a28383516137a1565b94860194925090850190600101613986565b505086810360a08801526139c8818c61371c565b9450505050506139e460c084018767ffffffffffffffff169052565b67ffffffffffffffff851660e0840152828103610100840152613a0781856137a1565b9c9b505050505050505050505050565b84815260ff841660208201528260408201526080606082015260006111dd60808301846137a1565b85815260ff8516602082015283604082015260a060608201526000613a6760a08301856137a1565b8281036080840152613a7981856137a1565b98975050505050505050565b604051601f8201601f1916810167ffffffffffffffff81118282101715613aae57613aae613c3e565b604052919050565b600067ffffffffffffffff821115613ad057613ad0613c3e565b5060051b60200190565b60008219821115613aed57613aed613bfc565b500190565b600067ffffffffffffffff808316818516808303821115613b1557613b15613bfc565b01949350505050565b600082613b3b57634e487b7160e01b600052601260045260246000fd5b500490565b6000816000190483118215151615613b5a57613b5a613bfc565b500290565b600082821015613b7157613b71613bfc565b500390565b60005b83811015613b91578181015183820152602001613b79565b83811115613ba0576000848401525b50505050565b600181811c90821680613bba57607f821691505b60208210811415613bdb57634e487b7160e01b600052602260045260246000fd5b50919050565b6000600019821415613bf557613bf5613bfc565b5060010190565b634e487b7160e01b600052601160045260246000fd5b634e487b7160e01b600052602160045260246000fd5b634e487b7160e01b600052603260045260246000fd5b634e487b7160e01b600052604160045260246000fd5b6001600160a01b0381168114610b4257600080fdfe416464726573733a206c6f772d6c6576656c2063616c6c20776974682076616c7565206661696c6564a2646970667358221220b15af828585e3633fd4e8bfde7ba208f40c60621c89a45cda871714d56a7626b64736f6c63430008070033",
  "linkReferences": {},
  "deployedLinkReferences": {}
}