{
  "_format": "hh-sol-artifact-1",
  "contractName": "Fungi",
  "sourceName": "contracts/RandomPack.sol",
  "abi": [
    {
      "inputs": [
        {
          "internalType": "string",
          "name": "baseTokenURIC",
          "type": "string"
        },
        {
          "internalType": "address",
          "name": "packContract",
          "type": "address"
        }
      ],
      "stateMutability": "nonpayable",
      "type": "constructor"
    },
    {
      "anonymous": false,
      "inputs": [
        {
          "indexed": true,
          "internalType": "address",
          "name": "owner",
          "type": "address"
        },
        {
          "indexed": true,
          "internalType": "address",
          "name": "approved",
          "type": "address"
        },
        {
          "indexed": true,
          "internalType": "uint256",
          "name": "tokenId",
          "type": "uint256"
        }
      ],
      "name": "Approval",
      "type": "event"
    },
    {
      "anonymous": false,
      "inputs": [
        {
          "indexed": true,
          "internalType": "address",
          "name": "owner",
          "type": "address"
        },
        {
          "indexed": true,
          "internalType": "address",
          "name": "operator",
          "type": "address"
        },
        {
          "indexed": false,
          "internalType": "bool",
          "name": "approved",
          "type": "bool"
        }
      ],
      "name": "ApprovalForAll",
      "type": "event"
    },
    {
      "anonymous": false,
      "inputs": [
        {
          "indexed": true,
          "internalType": "address",
          "name": "previousOwner",
          "type": "address"
        },
        {
          "indexed": true,
          "internalType": "address",
          "name": "newOwner",
          "type": "address"
        }
      ],
      "name": "OwnershipTransferred",
      "type": "event"
    },
    {
      "anonymous": false,
      "inputs": [
        {
          "indexed": true,
          "internalType": "address",
          "name": "from",
          "type": "address"
        },
        {
          "indexed": true,
          "internalType": "address",
          "name": "to",
          "type": "address"
        },
        {
          "indexed": true,
          "internalType": "uint256",
          "name": "tokenId",
          "type": "uint256"
        }
      ],
      "name": "Transfer",
      "type": "event"
    },
    {
      "inputs": [
        {
          "internalType": "address",
          "name": "to",
          "type": "address"
        },
        {
          "internalType": "uint256",
          "name": "tokenId",
          "type": "uint256"
        }
      ],
      "name": "approve",
      "outputs": [],
      "stateMutability": "nonpayable",
      "type": "function"
    },
    {
      "inputs": [
        {
          "internalType": "address",
          "name": "owner",
          "type": "address"
        }
      ],
      "name": "balanceOf",
      "outputs": [
        {
          "internalType": "uint256",
          "name": "",
          "type": "uint256"
        }
      ],
      "stateMutability": "view",
      "type": "function"
    },
    {
      "inputs": [],
      "name": "baseTokenURI",
      "outputs": [
        {
          "internalType": "string",
          "name": "",
          "type": "string"
        }
      ],
      "stateMutability": "view",
      "type": "function"
    },
    {
      "inputs": [
        {
          "internalType": "uint256",
          "name": "tokenId",
          "type": "uint256"
        }
      ],
      "name": "burn",
      "outputs": [],
      "stateMutability": "nonpayable",
      "type": "function"
    },
    {
      "inputs": [
        {
          "internalType": "uint256",
          "name": "tokenId",
          "type": "uint256"
        }
      ],
      "name": "getApproved",
      "outputs": [
        {
          "internalType": "address",
          "name": "",
          "type": "address"
        }
      ],
      "stateMutability": "view",
      "type": "function"
    },
    {
      "inputs": [
        {
          "internalType": "address",
          "name": "owner",
          "type": "address"
        },
        {
          "internalType": "address",
          "name": "operator",
          "type": "address"
        }
      ],
      "name": "isApprovedForAll",
      "outputs": [
        {
          "internalType": "bool",
          "name": "",
          "type": "bool"
        }
      ],
      "stateMutability": "view",
      "type": "function"
    },
    {
      "inputs": [
        {
          "internalType": "address",
          "name": "to",
          "type": "address"
        }
      ],
      "name": "mint",
      "outputs": [],
      "stateMutability": "nonpayable",
      "type": "function"
    },
    {
      "inputs": [],
      "name": "name",
      "outputs": [
        {
          "internalType": "string",
          "name": "",
          "type": "string"
        }
      ],
      "stateMutability": "view",
      "type": "function"
    },
    {
      "inputs": [],
      "name": "owner",
      "outputs": [
        {
          "internalType": "address",
          "name": "",
          "type": "address"
        }
      ],
      "stateMutability": "view",
      "type": "function"
    },
    {
      "inputs": [
        {
          "internalType": "uint256",
          "name": "tokenId",
          "type": "uint256"
        }
      ],
      "name": "ownerOf",
      "outputs": [
        {
          "internalType": "address",
          "name": "",
          "type": "address"
        }
      ],
      "stateMutability": "view",
      "type": "function"
    },
    {
      "inputs": [],
      "name": "renounceOwnership",
      "outputs": [],
      "stateMutability": "nonpayable",
      "type": "function"
    },
    {
      "inputs": [
        {
          "internalType": "address",
          "name": "from",
          "type": "address"
        },
        {
          "internalType": "address",
          "name": "to",
          "type": "address"
        },
        {
          "internalType": "uint256",
          "name": "tokenId",
          "type": "uint256"
        }
      ],
      "name": "safeTransferFrom",
      "outputs": [],
      "stateMutability": "nonpayable",
      "type": "function"
    },
    {
      "inputs": [
        {
          "internalType": "address",
          "name": "from",
          "type": "address"
        },
        {
          "internalType": "address",
          "name": "to",
          "type": "address"
        },
        {
          "internalType": "uint256",
          "name": "tokenId",
          "type": "uint256"
        },
        {
          "internalType": "bytes",
          "name": "_data",
          "type": "bytes"
        }
      ],
      "name": "safeTransferFrom",
      "outputs": [],
      "stateMutability": "nonpayable",
      "type": "function"
    },
    {
      "inputs": [
        {
          "internalType": "address",
          "name": "operator",
          "type": "address"
        },
        {
          "internalType": "bool",
          "name": "approved",
          "type": "bool"
        }
      ],
      "name": "setApprovalForAll",
      "outputs": [],
      "stateMutability": "nonpayable",
      "type": "function"
    },
    {
      "inputs": [
        {
          "internalType": "bytes4",
          "name": "interfaceId",
          "type": "bytes4"
        }
      ],
      "name": "supportsInterface",
      "outputs": [
        {
          "internalType": "bool",
          "name": "",
          "type": "bool"
        }
      ],
      "stateMutability": "view",
      "type": "function"
    },
    {
      "inputs": [],
      "name": "symbol",
      "outputs": [
        {
          "internalType": "string",
          "name": "",
          "type": "string"
        }
      ],
      "stateMutability": "view",
      "type": "function"
    },
    {
      "inputs": [
        {
          "internalType": "uint256",
          "name": "_tokenId",
          "type": "uint256"
        }
      ],
      "name": "tokenURI",
      "outputs": [
        {
          "internalType": "string",
          "name": "",
          "type": "string"
        }
      ],
      "stateMutability": "view",
      "type": "function"
    },
    {
      "inputs": [
        {
          "internalType": "address",
          "name": "from",
          "type": "address"
        },
        {
          "internalType": "address",
          "name": "to",
          "type": "address"
        },
        {
          "internalType": "uint256",
          "name": "tokenId",
          "type": "uint256"
        }
      ],
      "name": "transferFrom",
      "outputs": [],
      "stateMutability": "nonpayable",
      "type": "function"
    },
    {
      "inputs": [
        {
          "internalType": "address",
          "name": "newOwner",
          "type": "address"
        }
      ],
      "name": "transferOwnership",
      "outputs": [],
      "stateMutability": "nonpayable",
      "type": "function"
    }
  ],
  "bytecode": "0x60806040523480156200001157600080fd5b5060405162001c7c38038062001c7c8339810160408190526200003491620001d3565b604080518082018252600581526446756e676960d81b602080830191825283518085019094526003845262464e4760e81b9084015281519192916200007c9160009162000110565b5080516200009290600190602084019062000110565b50508251620000aa9150600990602085019062000110565b50620000b681620000be565b505062000317565b600680546001600160a01b038381166001600160a01b0319831681179093556040519116919082907f8be0079c531659141344cd1fd0a4f28419497f9722a3daafe3b4186f6b6457e090600090a35050565b8280546200011e90620002c4565b90600052602060002090601f0160209004810192826200014257600085556200018d565b82601f106200015d57805160ff19168380011785556200018d565b828001600101855582156200018d579182015b828111156200018d57825182559160200191906001019062000170565b506200019b9291506200019f565b5090565b5b808211156200019b5760008155600101620001a0565b80516001600160a01b0381168114620001ce57600080fd5b919050565b60008060408385031215620001e757600080fd5b82516001600160401b0380821115620001ff57600080fd5b818501915085601f8301126200021457600080fd5b81518181111562000229576200022962000301565b604051601f8201601f19908116603f0116810190838211818310171562000254576200025462000301565b816040528281526020935088848487010111156200027157600080fd5b600091505b8282101562000295578482018401518183018501529083019062000276565b82821115620002a75760008484830101525b9550620002b9915050858201620001b6565b925050509250929050565b600181811c90821680620002d957607f821691505b60208210811415620002fb57634e487b7160e01b600052602260045260246000fd5b50919050565b634e487b7160e01b600052604160045260246000fd5b61195580620003276000396000f3fe608060405234801561001057600080fd5b50600436106101515760003560e01c806370a08231116100cd578063b88d4fde11610081578063d547cfb711610066578063d547cfb7146102ad578063e985e9c5146102b5578063f2fde38b146102f157600080fd5b8063b88d4fde14610287578063c87b56dd1461029a57600080fd5b80638da5cb5b116100b25780638da5cb5b1461025b57806395d89b411461026c578063a22cb4651461027457600080fd5b806370a0823114610232578063715018a61461025357600080fd5b806323b872dd1161012457806342966c681161010957806342966c68146101f95780636352211e1461020c5780636a6278421461021f57600080fd5b806323b872dd146101d357806342842e0e146101e657600080fd5b806301ffc9a71461015657806306fdde031461017e578063081812fc14610193578063095ea7b3146101be575b600080fd5b6101696101643660046116db565b610304565b60405190151581526020015b60405180910390f35b6101866103a1565b60405161017591906117c5565b6101a66101a1366004611715565b610433565b6040516001600160a01b039091168152602001610175565b6101d16101cc3660046116b1565b6104cd565b005b6101d16101e136600461155d565b6105ff565b6101d16101f436600461155d565b610687565b6101d1610207366004611715565b6106a2565b6101a661021a366004611715565b610729565b6101d161022d366004611508565b6107b4565b610245610240366004611508565b610837565b604051908152602001610175565b6101d16108d1565b6006546001600160a01b03166101a6565b610186610937565b6101d1610282366004611675565b610946565b6101d1610295366004611599565b610951565b6101866102a8366004611715565b6109df565b610186610a19565b6101696102c336600461152a565b6001600160a01b03918216600090815260056020908152604080832093909416825291909152205460ff1690565b6101d16102ff366004611508565b610a28565b60006001600160e01b031982167f80ac58cd00000000000000000000000000000000000000000000000000000000148061036757506001600160e01b031982167f5b5e139f00000000000000000000000000000000000000000000000000000000145b8061039b57507f01ffc9a7000000000000000000000000000000000000000000000000000000006001600160e01b03198316145b92915050565b6060600080546103b090611847565b80601f01602080910402602001604051908101604052809291908181526020018280546103dc90611847565b80156104295780601f106103fe57610100808354040283529160200191610429565b820191906000526020600020905b81548152906001019060200180831161040c57829003601f168201915b5050505050905090565b6000818152600260205260408120546001600160a01b03166104b15760405162461bcd60e51b815260206004820152602c60248201527f4552433732313a20617070726f76656420717565727920666f72206e6f6e657860448201526b34b9ba32b73a103a37b5b2b760a11b60648201526084015b60405180910390fd5b506000908152600460205260409020546001600160a01b031690565b60006104d882610729565b9050806001600160a01b0316836001600160a01b031614156105625760405162461bcd60e51b815260206004820152602160248201527f4552433732313a20617070726f76616c20746f2063757272656e74206f776e6560448201527f720000000000000000000000000000000000000000000000000000000000000060648201526084016104a8565b336001600160a01b038216148061057e575061057e81336102c3565b6105f05760405162461bcd60e51b815260206004820152603860248201527f4552433732313a20617070726f76652063616c6c6572206973206e6f74206f7760448201527f6e6572206e6f7220617070726f76656420666f7220616c6c000000000000000060648201526084016104a8565b6105fa8383610b07565b505050565b61060a335b82610b75565b61067c5760405162461bcd60e51b815260206004820152603160248201527f4552433732313a207472616e736665722063616c6c6572206973206e6f74206f60448201527f776e6572206e6f7220617070726f76656400000000000000000000000000000060648201526084016104a8565b6105fa838383610c6c565b6105fa83838360405180602001604052806000815250610951565b6106ab33610604565b61071d5760405162461bcd60e51b815260206004820152603060248201527f4552433732314275726e61626c653a2063616c6c6572206973206e6f74206f7760448201527f6e6572206e6f7220617070726f7665640000000000000000000000000000000060648201526084016104a8565b61072681610e39565b50565b6000818152600260205260408120546001600160a01b03168061039b5760405162461bcd60e51b815260206004820152602960248201527f4552433732313a206f776e657220717565727920666f72206e6f6e657869737460448201527f656e7420746f6b656e000000000000000000000000000000000000000000000060648201526084016104a8565b6006546001600160a01b0316331461080e5760405162461bcd60e51b815260206004820181905260248201527f4f776e61626c653a2063616c6c6572206973206e6f7420746865206f776e657260448201526064016104a8565b600061081960085490565b9050610829600880546001019055565b6108338282610e42565b5050565b60006001600160a01b0382166108b55760405162461bcd60e51b815260206004820152602a60248201527f4552433732313a2062616c616e636520717565727920666f7220746865207a6560448201527f726f20616464726573730000000000000000000000000000000000000000000060648201526084016104a8565b506001600160a01b031660009081526003602052604090205490565b6006546001600160a01b0316331461092b5760405162461bcd60e51b815260206004820181905260248201527f4f776e61626c653a2063616c6c6572206973206e6f7420746865206f776e657260448201526064016104a8565b6109356000610f84565b565b6060600180546103b090611847565b610833338383610fd6565b61095b3383610b75565b6109cd5760405162461bcd60e51b815260206004820152603160248201527f4552433732313a207472616e736665722063616c6c6572206973206e6f74206f60448201527f776e6572206e6f7220617070726f76656400000000000000000000000000000060648201526084016104a8565b6109d9848484846110a5565b50505050565b60606109e9610a19565b6109f28361112e565b604051602001610a0392919061175a565b6040516020818303038152906040529050919050565b6060600980546103b090611847565b6006546001600160a01b03163314610a825760405162461bcd60e51b815260206004820181905260248201527f4f776e61626c653a2063616c6c6572206973206e6f7420746865206f776e657260448201526064016104a8565b6001600160a01b038116610afe5760405162461bcd60e51b815260206004820152602660248201527f4f776e61626c653a206e6577206f776e657220697320746865207a65726f206160448201527f646472657373000000000000000000000000000000000000000000000000000060648201526084016104a8565b61072681610f84565b600081815260046020526040902080546001600160a01b0319166001600160a01b0384169081179091558190610b3c82610729565b6001600160a01b03167f8c5be1e5ebec7d5bd14f71427d1e84f3dd0314c0f7b2291e5b200ac8c7c3b92560405160405180910390a45050565b6000818152600260205260408120546001600160a01b0316610bee5760405162461bcd60e51b815260206004820152602c60248201527f4552433732313a206f70657261746f7220717565727920666f72206e6f6e657860448201526b34b9ba32b73a103a37b5b2b760a11b60648201526084016104a8565b6000610bf983610729565b9050806001600160a01b0316846001600160a01b03161480610c4057506001600160a01b0380821660009081526005602090815260408083209388168352929052205460ff165b80610c645750836001600160a01b0316610c5984610433565b6001600160a01b0316145b949350505050565b826001600160a01b0316610c7f82610729565b6001600160a01b031614610cfb5760405162461bcd60e51b815260206004820152602560248201527f4552433732313a207472616e736665722066726f6d20696e636f72726563742060448201527f6f776e657200000000000000000000000000000000000000000000000000000060648201526084016104a8565b6001600160a01b038216610d765760405162461bcd60e51b8152602060048201526024808201527f4552433732313a207472616e7366657220746f20746865207a65726f2061646460448201527f726573730000000000000000000000000000000000000000000000000000000060648201526084016104a8565b610d81600082610b07565b6001600160a01b0383166000908152600360205260408120805460019290610daa908490611804565b90915550506001600160a01b0382166000908152600360205260408120805460019290610dd89084906117d8565b909155505060008181526002602052604080822080546001600160a01b0319166001600160a01b0386811691821790925591518493918716917fddf252ad1be2c89b69c2b068fc378daa952ba7f163c4a11628f55a4df523b3ef91a4505050565b61072681611260565b6001600160a01b038216610e985760405162461bcd60e51b815260206004820181905260248201527f4552433732313a206d696e7420746f20746865207a65726f206164647265737360448201526064016104a8565b6000818152600260205260409020546001600160a01b031615610efd5760405162461bcd60e51b815260206004820152601c60248201527f4552433732313a20746f6b656e20616c7265616479206d696e7465640000000060448201526064016104a8565b6001600160a01b0382166000908152600360205260408120805460019290610f269084906117d8565b909155505060008181526002602052604080822080546001600160a01b0319166001600160a01b03861690811790915590518392907fddf252ad1be2c89b69c2b068fc378daa952ba7f163c4a11628f55a4df523b3ef908290a45050565b600680546001600160a01b038381166001600160a01b0319831681179093556040519116919082907f8be0079c531659141344cd1fd0a4f28419497f9722a3daafe3b4186f6b6457e090600090a35050565b816001600160a01b0316836001600160a01b031614156110385760405162461bcd60e51b815260206004820152601960248201527f4552433732313a20617070726f766520746f2063616c6c65720000000000000060448201526064016104a8565b6001600160a01b03838116600081815260056020908152604080832094871680845294825291829020805460ff191686151590811790915591519182527f17307eab39ab6107e8899845ad3d59bd9653f200f220920489ca2b5937696c31910160405180910390a3505050565b6110b0848484610c6c565b6110bc848484846112a0565b6109d95760405162461bcd60e51b815260206004820152603260248201527f4552433732313a207472616e7366657220746f206e6f6e20455243373231526560448201527f63656976657220696d706c656d656e746572000000000000000000000000000060648201526084016104a8565b60608161116e57505060408051808201909152600181527f3000000000000000000000000000000000000000000000000000000000000000602082015290565b8160005b8115611198578061118281611882565b91506111919050600a836117f0565b9150611172565b60008167ffffffffffffffff8111156111b3576111b36118f3565b6040519080825280601f01601f1916602001820160405280156111dd576020820181803683370190505b5090505b8415610c64576111f2600183611804565b91506111ff600a8661189d565b61120a9060306117d8565b60f81b81838151811061121f5761121f6118dd565b60200101907effffffffffffffffffffffffffffffffffffffffffffffffffffffffffffff1916908160001a905350611259600a866117f0565b94506111e1565b61126981611403565b6000818152600760205260409020805461128290611847565b1590506107265760008181526007602052604081206107269161149e565b60006001600160a01b0384163b156113f857604051630a85bd0160e11b81526001600160a01b0385169063150b7a02906112e4903390899088908890600401611789565b602060405180830381600087803b1580156112fe57600080fd5b505af192505050801561132e575060408051601f3d908101601f1916820190925261132b918101906116f8565b60015b6113de573d80801561135c576040519150601f19603f3d011682016040523d82523d6000602084013e611361565b606091505b5080516113d65760405162461bcd60e51b815260206004820152603260248201527f4552433732313a207472616e7366657220746f206e6f6e20455243373231526560448201527f63656976657220696d706c656d656e746572000000000000000000000000000060648201526084016104a8565b805181602001fd5b6001600160e01b031916630a85bd0160e11b149050610c64565b506001949350505050565b600061140e82610729565b905061141b600083610b07565b6001600160a01b0381166000908152600360205260408120805460019290611444908490611804565b909155505060008281526002602052604080822080546001600160a01b0319169055518391906001600160a01b038416907fddf252ad1be2c89b69c2b068fc378daa952ba7f163c4a11628f55a4df523b3ef908390a45050565b5080546114aa90611847565b6000825580601f106114ba575050565b601f01602090049060005260206000209081019061072691905b808211156114e857600081556001016114d4565b5090565b80356001600160a01b038116811461150357600080fd5b919050565b60006020828403121561151a57600080fd5b611523826114ec565b9392505050565b6000806040838503121561153d57600080fd5b611546836114ec565b9150611554602084016114ec565b90509250929050565b60008060006060848603121561157257600080fd5b61157b846114ec565b9250611589602085016114ec565b9150604084013590509250925092565b600080600080608085870312156115af57600080fd5b6115b8856114ec565b93506115c6602086016114ec565b925060408501359150606085013567ffffffffffffffff808211156115ea57600080fd5b818701915087601f8301126115fe57600080fd5b813581811115611610576116106118f3565b604051601f8201601f19908116603f01168101908382118183101715611638576116386118f3565b816040528281528a602084870101111561165157600080fd5b82602086016020830137600060208483010152809550505050505092959194509250565b6000806040838503121561168857600080fd5b611691836114ec565b9150602083013580151581146116a657600080fd5b809150509250929050565b600080604083850312156116c457600080fd5b6116cd836114ec565b946020939093013593505050565b6000602082840312156116ed57600080fd5b813561152381611909565b60006020828403121561170a57600080fd5b815161152381611909565b60006020828403121561172757600080fd5b5035919050565b6000815180845261174681602086016020860161181b565b601f01601f19169290920160200192915050565b6000835161176c81846020880161181b565b83519083019061178081836020880161181b565b01949350505050565b60006001600160a01b038087168352808616602084015250836040830152608060608301526117bb608083018461172e565b9695505050505050565b602081526000611523602083018461172e565b600082198211156117eb576117eb6118b1565b500190565b6000826117ff576117ff6118c7565b500490565b600082821015611816576118166118b1565b500390565b60005b8381101561183657818101518382015260200161181e565b838111156109d95750506000910152565b600181811c9082168061185b57607f821691505b6020821081141561187c57634e487b7160e01b600052602260045260246000fd5b50919050565b6000600019821415611896576118966118b1565b5060010190565b6000826118ac576118ac6118c7565b500690565b634e487b7160e01b600052601160045260246000fd5b634e487b7160e01b600052601260045260246000fd5b634e487b7160e01b600052603260045260246000fd5b634e487b7160e01b600052604160045260246000fd5b6001600160e01b03198116811461072657600080fdfea26469706673582212207613e447c37822f5ecf506eda4cdfac0cbedb0ce9097c64043f8b78f24962c2064736f6c63430008070033",
  "linkReferences": {},
  "deployedLinkReferences": {}
}