{
  "_format": "hh-sol-artifact-1",
  "contractName": "TimelockController",
  "sourceName": "@openzeppelin/contracts/governance/TimelockController.sol",
  "abi": [
    {
      "inputs": [
        {
          "internalType": "uint256",
          "name": "minDelay",
          "type": "uint256"
        },
        {
          "internalType": "address[]",
          "name": "proposers",
          "type": "address[]"
        },
        {
          "internalType": "address[]",
          "name": "executors",
          "type": "address[]"
        }
      ],
      "stateMutability": "nonpayable",
      "type": "constructor"
    },
    {
      "anonymous": false,
      "inputs": [
        {
          "indexed": true,
          "internalType": "bytes32",
          "name": "id",
          "type": "bytes32"
        },
        {
          "indexed": true,
          "internalType": "uint256",
          "name": "index",
          "type": "uint256"
        },
        {
          "indexed": false,
          "internalType": "address",
          "name": "target",
          "type": "address"
        },
        {
          "indexed": false,
          "internalType": "uint256",
          "name": "value",
          "type": "uint256"
        },
        {
          "indexed": false,
          "internalType": "bytes",
          "name": "data",
          "type": "bytes"
        }
      ],
      "name": "CallExecuted",
      "type": "event"
    },
    {
      "anonymous": false,
      "inputs": [
        {
          "indexed": true,
          "internalType": "bytes32",
          "name": "id",
          "type": "bytes32"
        },
        {
          "indexed": true,
          "internalType": "uint256",
          "name": "index",
          "type": "uint256"
        },
        {
          "indexed": false,
          "internalType": "address",
          "name": "target",
          "type": "address"
        },
        {
          "indexed": false,
          "internalType": "uint256",
          "name": "value",
          "type": "uint256"
        },
        {
          "indexed": false,
          "internalType": "bytes",
          "name": "data",
          "type": "bytes"
        },
        {
          "indexed": false,
          "internalType": "bytes32",
          "name": "predecessor",
          "type": "bytes32"
        },
        {
          "indexed": false,
          "internalType": "uint256",
          "name": "delay",
          "type": "uint256"
        }
      ],
      "name": "CallScheduled",
      "type": "event"
    },
    {
      "anonymous": false,
      "inputs": [
        {
          "indexed": true,
          "internalType": "bytes32",
          "name": "id",
          "type": "bytes32"
        }
      ],
      "name": "Cancelled",
      "type": "event"
    },
    {
      "anonymous": false,
      "inputs": [
        {
          "indexed": false,
          "internalType": "uint256",
          "name": "oldDuration",
          "type": "uint256"
        },
        {
          "indexed": false,
          "internalType": "uint256",
          "name": "newDuration",
          "type": "uint256"
        }
      ],
      "name": "MinDelayChange",
      "type": "event"
    },
    {
      "anonymous": false,
      "inputs": [
        {
          "indexed": true,
          "internalType": "bytes32",
          "name": "role",
          "type": "bytes32"
        },
        {
          "indexed": true,
          "internalType": "bytes32",
          "name": "previousAdminRole",
          "type": "bytes32"
        },
        {
          "indexed": true,
          "internalType": "bytes32",
          "name": "newAdminRole",
          "type": "bytes32"
        }
      ],
      "name": "RoleAdminChanged",
      "type": "event"
    },
    {
      "anonymous": false,
      "inputs": [
        {
          "indexed": true,
          "internalType": "bytes32",
          "name": "role",
          "type": "bytes32"
        },
        {
          "indexed": true,
          "internalType": "address",
          "name": "account",
          "type": "address"
        },
        {
          "indexed": true,
          "internalType": "address",
          "name": "sender",
          "type": "address"
        }
      ],
      "name": "RoleGranted",
      "type": "event"
    },
    {
      "anonymous": false,
      "inputs": [
        {
          "indexed": true,
          "internalType": "bytes32",
          "name": "role",
          "type": "bytes32"
        },
        {
          "indexed": true,
          "internalType": "address",
          "name": "account",
          "type": "address"
        },
        {
          "indexed": true,
          "internalType": "address",
          "name": "sender",
          "type": "address"
        }
      ],
      "name": "RoleRevoked",
      "type": "event"
    },
    {
      "inputs": [],
      "name": "CANCELLER_ROLE",
      "outputs": [
        {
          "internalType": "bytes32",
          "name": "",
          "type": "bytes32"
        }
      ],
      "stateMutability": "view",
      "type": "function"
    },
    {
      "inputs": [],
      "name": "DEFAULT_ADMIN_ROLE",
      "outputs": [
        {
          "internalType": "bytes32",
          "name": "",
          "type": "bytes32"
        }
      ],
      "stateMutability": "view",
      "type": "function"
    },
    {
      "inputs": [],
      "name": "EXECUTOR_ROLE",
      "outputs": [
        {
          "internalType": "bytes32",
          "name": "",
          "type": "bytes32"
        }
      ],
      "stateMutability": "view",
      "type": "function"
    },
    {
      "inputs": [],
      "name": "PROPOSER_ROLE",
      "outputs": [
        {
          "internalType": "bytes32",
          "name": "",
          "type": "bytes32"
        }
      ],
      "stateMutability": "view",
      "type": "function"
    },
    {
      "inputs": [],
      "name": "TIMELOCK_ADMIN_ROLE",
      "outputs": [
        {
          "internalType": "bytes32",
          "name": "",
          "type": "bytes32"
        }
      ],
      "stateMutability": "view",
      "type": "function"
    },
    {
      "inputs": [
        {
          "internalType": "bytes32",
          "name": "id",
          "type": "bytes32"
        }
      ],
      "name": "cancel",
      "outputs": [],
      "stateMutability": "nonpayable",
      "type": "function"
    },
    {
      "inputs": [
        {
          "internalType": "address",
          "name": "target",
          "type": "address"
        },
        {
          "internalType": "uint256",
          "name": "value",
          "type": "uint256"
        },
        {
          "internalType": "bytes",
          "name": "data",
          "type": "bytes"
        },
        {
          "internalType": "bytes32",
          "name": "predecessor",
          "type": "bytes32"
        },
        {
          "internalType": "bytes32",
          "name": "salt",
          "type": "bytes32"
        }
      ],
      "name": "execute",
      "outputs": [],
      "stateMutability": "payable",
      "type": "function"
    },
    {
      "inputs": [
        {
          "internalType": "address[]",
          "name": "targets",
          "type": "address[]"
        },
        {
          "internalType": "uint256[]",
          "name": "values",
          "type": "uint256[]"
        },
        {
          "internalType": "bytes[]",
          "name": "payloads",
          "type": "bytes[]"
        },
        {
          "internalType": "bytes32",
          "name": "predecessor",
          "type": "bytes32"
        },
        {
          "internalType": "bytes32",
          "name": "salt",
          "type": "bytes32"
        }
      ],
      "name": "executeBatch",
      "outputs": [],
      "stateMutability": "payable",
      "type": "function"
    },
    {
      "inputs": [],
      "name": "getMinDelay",
      "outputs": [
        {
          "internalType": "uint256",
          "name": "duration",
          "type": "uint256"
        }
      ],
      "stateMutability": "view",
      "type": "function"
    },
    {
      "inputs": [
        {
          "internalType": "bytes32",
          "name": "role",
          "type": "bytes32"
        }
      ],
      "name": "getRoleAdmin",
      "outputs": [
        {
          "internalType": "bytes32",
          "name": "",
          "type": "bytes32"
        }
      ],
      "stateMutability": "view",
      "type": "function"
    },
    {
      "inputs": [
        {
          "internalType": "bytes32",
          "name": "id",
          "type": "bytes32"
        }
      ],
      "name": "getTimestamp",
      "outputs": [
        {
          "internalType": "uint256",
          "name": "timestamp",
          "type": "uint256"
        }
      ],
      "stateMutability": "view",
      "type": "function"
    },
    {
      "inputs": [
        {
          "internalType": "bytes32",
          "name": "role",
          "type": "bytes32"
        },
        {
          "internalType": "address",
          "name": "account",
          "type": "address"
        }
      ],
      "name": "grantRole",
      "outputs": [],
      "stateMutability": "nonpayable",
      "type": "function"
    },
    {
      "inputs": [
        {
          "internalType": "bytes32",
          "name": "role",
          "type": "bytes32"
        },
        {
          "internalType": "address",
          "name": "account",
          "type": "address"
        }
      ],
      "name": "hasRole",
      "outputs": [
        {
          "internalType": "bool",
          "name": "",
          "type": "bool"
        }
      ],
      "stateMutability": "view",
      "type": "function"
    },
    {
      "inputs": [
        {
          "internalType": "address",
          "name": "target",
          "type": "address"
        },
        {
          "internalType": "uint256",
          "name": "value",
          "type": "uint256"
        },
        {
          "internalType": "bytes",
          "name": "data",
          "type": "bytes"
        },
        {
          "internalType": "bytes32",
          "name": "predecessor",
          "type": "bytes32"
        },
        {
          "internalType": "bytes32",
          "name": "salt",
          "type": "bytes32"
        }
      ],
      "name": "hashOperation",
      "outputs": [
        {
          "internalType": "bytes32",
          "name": "hash",
          "type": "bytes32"
        }
      ],
      "stateMutability": "pure",
      "type": "function"
    },
    {
      "inputs": [
        {
          "internalType": "address[]",
          "name": "targets",
          "type": "address[]"
        },
        {
          "internalType": "uint256[]",
          "name": "values",
          "type": "uint256[]"
        },
        {
          "internalType": "bytes[]",
          "name": "payloads",
          "type": "bytes[]"
        },
        {
          "internalType": "bytes32",
          "name": "predecessor",
          "type": "bytes32"
        },
        {
          "internalType": "bytes32",
          "name": "salt",
          "type": "bytes32"
        }
      ],
      "name": "hashOperationBatch",
      "outputs": [
        {
          "internalType": "bytes32",
          "name": "hash",
          "type": "bytes32"
        }
      ],
      "stateMutability": "pure",
      "type": "function"
    },
    {
      "inputs": [
        {
          "internalType": "bytes32",
          "name": "id",
          "type": "bytes32"
        }
      ],
      "name": "isOperation",
      "outputs": [
        {
          "internalType": "bool",
          "name": "pending",
          "type": "bool"
        }
      ],
      "stateMutability": "view",
      "type": "function"
    },
    {
      "inputs": [
        {
          "internalType": "bytes32",
          "name": "id",
          "type": "bytes32"
        }
      ],
      "name": "isOperationDone",
      "outputs": [
        {
          "internalType": "bool",
          "name": "done",
          "type": "bool"
        }
      ],
      "stateMutability": "view",
      "type": "function"
    },
    {
      "inputs": [
        {
          "internalType": "bytes32",
          "name": "id",
          "type": "bytes32"
        }
      ],
      "name": "isOperationPending",
      "outputs": [
        {
          "internalType": "bool",
          "name": "pending",
          "type": "bool"
        }
      ],
      "stateMutability": "view",
      "type": "function"
    },
    {
      "inputs": [
        {
          "internalType": "bytes32",
          "name": "id",
          "type": "bytes32"
        }
      ],
      "name": "isOperationReady",
      "outputs": [
        {
          "internalType": "bool",
          "name": "ready",
          "type": "bool"
        }
      ],
      "stateMutability": "view",
      "type": "function"
    },
    {
      "inputs": [
        {
          "internalType": "address",
          "name": "",
          "type": "address"
        },
        {
          "internalType": "address",
          "name": "",
          "type": "address"
        },
        {
          "internalType": "uint256[]",
          "name": "",
          "type": "uint256[]"
        },
        {
          "internalType": "uint256[]",
          "name": "",
          "type": "uint256[]"
        },
        {
          "internalType": "bytes",
          "name": "",
          "type": "bytes"
        }
      ],
      "name": "onERC1155BatchReceived",
      "outputs": [
        {
          "internalType": "bytes4",
          "name": "",
          "type": "bytes4"
        }
      ],
      "stateMutability": "nonpayable",
      "type": "function"
    },
    {
      "inputs": [
        {
          "internalType": "address",
          "name": "",
          "type": "address"
        },
        {
          "internalType": "address",
          "name": "",
          "type": "address"
        },
        {
          "internalType": "uint256",
          "name": "",
          "type": "uint256"
        },
        {
          "internalType": "uint256",
          "name": "",
          "type": "uint256"
        },
        {
          "internalType": "bytes",
          "name": "",
          "type": "bytes"
        }
      ],
      "name": "onERC1155Received",
      "outputs": [
        {
          "internalType": "bytes4",
          "name": "",
          "type": "bytes4"
        }
      ],
      "stateMutability": "nonpayable",
      "type": "function"
    },
    {
      "inputs": [
        {
          "internalType": "address",
          "name": "",
          "type": "address"
        },
        {
          "internalType": "address",
          "name": "",
          "type": "address"
        },
        {
          "internalType": "uint256",
          "name": "",
          "type": "uint256"
        },
        {
          "internalType": "bytes",
          "name": "",
          "type": "bytes"
        }
      ],
      "name": "onERC721Received",
      "outputs": [
        {
          "internalType": "bytes4",
          "name": "",
          "type": "bytes4"
        }
      ],
      "stateMutability": "nonpayable",
      "type": "function"
    },
    {
      "inputs": [
        {
          "internalType": "bytes32",
          "name": "role",
          "type": "bytes32"
        },
        {
          "internalType": "address",
          "name": "account",
          "type": "address"
        }
      ],
      "name": "renounceRole",
      "outputs": [],
      "stateMutability": "nonpayable",
      "type": "function"
    },
    {
      "inputs": [
        {
          "internalType": "bytes32",
          "name": "role",
          "type": "bytes32"
        },
        {
          "internalType": "address",
          "name": "account",
          "type": "address"
        }
      ],
      "name": "revokeRole",
      "outputs": [],
      "stateMutability": "nonpayable",
      "type": "function"
    },
    {
      "inputs": [
        {
          "internalType": "address",
          "name": "target",
          "type": "address"
        },
        {
          "internalType": "uint256",
          "name": "value",
          "type": "uint256"
        },
        {
          "internalType": "bytes",
          "name": "data",
          "type": "bytes"
        },
        {
          "internalType": "bytes32",
          "name": "predecessor",
          "type": "bytes32"
        },
        {
          "internalType": "bytes32",
          "name": "salt",
          "type": "bytes32"
        },
        {
          "internalType": "uint256",
          "name": "delay",
          "type": "uint256"
        }
      ],
      "name": "schedule",
      "outputs": [],
      "stateMutability": "nonpayable",
      "type": "function"
    },
    {
      "inputs": [
        {
          "internalType": "address[]",
          "name": "targets",
          "type": "address[]"
        },
        {
          "internalType": "uint256[]",
          "name": "values",
          "type": "uint256[]"
        },
        {
          "internalType": "bytes[]",
          "name": "payloads",
          "type": "bytes[]"
        },
        {
          "internalType": "bytes32",
          "name": "predecessor",
          "type": "bytes32"
        },
        {
          "internalType": "bytes32",
          "name": "salt",
          "type": "bytes32"
        },
        {
          "internalType": "uint256",
          "name": "delay",
          "type": "uint256"
        }
      ],
      "name": "scheduleBatch",
      "outputs": [],
      "stateMutability": "nonpayable",
      "type": "function"
    },
    {
      "inputs": [
        {
          "internalType": "bytes4",
          "name": "interfaceId",
          "type": "bytes4"
        }
      ],
      "name": "supportsInterface",
      "outputs": [
        {
          "internalType": "bool",
          "name": "",
          "type": "bool"
        }
      ],
      "stateMutability": "view",
      "type": "function"
    },
    {
      "inputs": [
        {
          "internalType": "uint256",
          "name": "newDelay",
          "type": "uint256"
        }
      ],
      "name": "updateDelay",
      "outputs": [],
      "stateMutability": "nonpayable",
      "type": "function"
    },
    {
      "stateMutability": "payable",
      "type": "receive"
    }
  ],
  "bytecode": "0x60806040523480156200001157600080fd5b50604051620025f1380380620025f18339810160408190526200003491620003e7565b6200004f60008051602062002571833981519152806200021c565b6200007960008051602062002591833981519152600080516020620025718339815191526200021c565b620000a3600080516020620025b1833981519152600080516020620025718339815191526200021c565b620000cd600080516020620025d1833981519152600080516020620025718339815191526200021c565b620000e8600080516020620025718339815191523362000267565b62000103600080516020620025718339815191523062000267565b60005b825181101562000189576200014d6000805160206200259183398151915284838151811062000139576200013962000485565b60200260200101516200026760201b60201c565b62000176600080516020620025d183398151915284838151811062000139576200013962000485565b62000181816200045b565b905062000106565b5060005b8151811015620001d357620001c0600080516020620025b183398151915283838151811062000139576200013962000485565b620001cb816200045b565b90506200018d565b5060028390556040805160008152602081018590527f11c24f4ead16507c69ac467fbd5e4eed5fb5c699626d2cc6d66421df253886d5910160405180910390a1505050620004b1565b600082815260208190526040808220600101805490849055905190918391839186917fbd79b86ffe0ab8e8776151514217cd7cacd52c909f66475c3af44e129f0b00ff9190a4505050565b62000273828262000277565b5050565b6000828152602081815260408083206001600160a01b038516845290915290205460ff1662000273576000828152602081815260408083206001600160a01b03851684529091529020805460ff19166001179055620002d33390565b6001600160a01b0316816001600160a01b0316837f2f8788117e7eff1d82e926ec794901d17c78024a50270940304540a733656f0d60405160405180910390a45050565b80516001600160a01b03811681146200032f57600080fd5b919050565b600082601f8301126200034657600080fd5b815160206001600160401b03808311156200036557620003656200049b565b8260051b604051601f19603f830116810181811084821117156200038d576200038d6200049b565b60405284815283810192508684018288018501891015620003ad57600080fd5b600092505b85831015620003db57620003c68162000317565b845292840192600192909201918401620003b2565b50979650505050505050565b600080600060608486031215620003fd57600080fd5b835160208501519093506001600160401b03808211156200041d57600080fd5b6200042b8783880162000334565b935060408601519150808211156200044257600080fd5b50620004518682870162000334565b9150509250925092565b60006000198214156200047e57634e487b7160e01b600052601160045260246000fd5b5060010190565b634e487b7160e01b600052603260045260246000fd5b634e487b7160e01b600052604160045260246000fd5b6120b080620004c16000396000f3fe6080604052600436106101bb5760003560e01c80638065657f116100ec578063bc197c811161008a578063d547741f11610064578063d547741f146105d8578063e38335e5146105f8578063f23a6e611461060b578063f27a0c921461065057600080fd5b8063bc197c8114610546578063c4d252f51461058b578063d45c4435146105ab57600080fd5b806391d14854116100c657806391d1485414610499578063a217fddf146104dd578063b08e51c0146104f2578063b1c5f4271461052657600080fd5b80638065657f146104255780638f2a0bb0146104455780638f61f4f51461046557600080fd5b8063248a9ca31161015957806331d507501161013357806331d50750146103a557806336568abe146103c5578063584b153e146103e557806364d623531461040557600080fd5b8063248a9ca3146103245780632ab0f529146103545780632f2ff15d1461038557600080fd5b80630d3cf6fc116101955780630d3cf6fc14610260578063134008d31461029457806313bc9f20146102a7578063150b7a02146102c757600080fd5b806301d5062a146101c757806301ffc9a7146101e957806307bd02651461021e57600080fd5b366101c257005b600080fd5b3480156101d357600080fd5b506101e76101e2366004611a35565b610665565b005b3480156101f557600080fd5b50610209610204366004611c4a565b6106fa565b60405190151581526020015b60405180910390f35b34801561022a57600080fd5b506102527fd8aa0f3194971a2a116679f7c2090f6939c8d4e01a2a8d7e41d55e5351469e6381565b604051908152602001610215565b34801561026c57600080fd5b506102527f5f58e3a2316349923ce3780f8d587db2d72378aed66a8261c916544fa6846ca581565b6101e76102a23660046119c9565b61073e565b3480156102b357600080fd5b506102096102c2366004611c05565b6107f9565b3480156102d357600080fd5b5061030b6102e23660046118fc565b7f150b7a0200000000000000000000000000000000000000000000000000000000949350505050565b6040516001600160e01b03199091168152602001610215565b34801561033057600080fd5b5061025261033f366004611c05565b60009081526020819052604090206001015490565b34801561036057600080fd5b5061020961036f366004611c05565b6000908152600160208190526040909120541490565b34801561039157600080fd5b506101e76103a0366004611c1e565b61081f565b3480156103b157600080fd5b506102096103c0366004611c05565b610849565b3480156103d157600080fd5b506101e76103e0366004611c1e565b610862565b3480156103f157600080fd5b50610209610400366004611c05565b6108f3565b34801561041157600080fd5b506101e7610420366004611c05565b610909565b34801561043157600080fd5b506102526104403660046119c9565b6109bf565b34801561045157600080fd5b506101e7610460366004611b53565b6109fe565b34801561047157600080fd5b506102527fb09aa5aeb3702cfd50b6b62bc4532604938f21248a27a1d5ca736082b6819cc181565b3480156104a557600080fd5b506102096104b4366004611c1e565b6000918252602082815260408084206001600160a01b0393909316845291905290205460ff1690565b3480156104e957600080fd5b50610252600081565b3480156104fe57600080fd5b506102527ffd643c72710c63c0180259aba6b2d05451e3591a24e58b62239378085726f78381565b34801561053257600080fd5b50610252610541366004611aaa565b610bc8565b34801561055257600080fd5b5061030b610561366004611852565b7fbc197c810000000000000000000000000000000000000000000000000000000095945050505050565b34801561059757600080fd5b506101e76105a6366004611c05565b610c0d565b3480156105b757600080fd5b506102526105c6366004611c05565b60009081526001602052604090205490565b3480156105e457600080fd5b506101e76105f3366004611c1e565b610cee565b6101e7610606366004611aaa565b610d13565b34801561061757600080fd5b5061030b610626366004611964565b7ff23a6e610000000000000000000000000000000000000000000000000000000095945050505050565b34801561065c57600080fd5b50600254610252565b7fb09aa5aeb3702cfd50b6b62bc4532604938f21248a27a1d5ca736082b6819cc161068f81610f03565b600061069f8989898989896109bf565b90506106ab8184610f10565b6000817f4cf4410cc57040e44862ef0f45f3dd5a5e02db8eb8add648d4b0e236f1d07dca8b8b8b8b8b8a6040516106e796959493929190611df2565b60405180910390a3505050505050505050565b60006001600160e01b031982167f4e2312e0000000000000000000000000000000000000000000000000000000001480610738575061073882611024565b92915050565b600080527fdae2aa361dfd1ca020a396615627d436107c35eff9fe7738a3512819782d70696020527f5ba6852781629bcdcd4bdaa6de76d786f1c64b16acdac474e55bebc0ea157951547fd8aa0f3194971a2a116679f7c2090f6939c8d4e01a2a8d7e41d55e5351469e639060ff166107bb576107bb813361108b565b60006107cb8888888888886109bf565b90506107d78185611109565b6107e68160008a8a8a8a6111ff565b6107ef8161131d565b5050505050505050565b6000818152600160205260408120546001811180156108185750428111155b9392505050565b60008281526020819052604090206001015461083a81610f03565b6108448383611399565b505050565b60008181526001602052604081205481905b1192915050565b6001600160a01b03811633146108e55760405162461bcd60e51b815260206004820152602f60248201527f416363657373436f6e74726f6c3a2063616e206f6e6c792072656e6f756e636560448201527f20726f6c657320666f722073656c66000000000000000000000000000000000060648201526084015b60405180910390fd5b6108ef8282611437565b5050565b600081815260016020819052604082205461085b565b33301461097e5760405162461bcd60e51b815260206004820152602b60248201527f54696d656c6f636b436f6e74726f6c6c65723a2063616c6c6572206d7573742060448201527f62652074696d656c6f636b00000000000000000000000000000000000000000060648201526084016108dc565b60025460408051918252602082018390527f11c24f4ead16507c69ac467fbd5e4eed5fb5c699626d2cc6d66421df253886d5910160405180910390a1600255565b60008686868686866040516020016109dc96959493929190611df2565b6040516020818303038152906040528051906020012090509695505050505050565b7fb09aa5aeb3702cfd50b6b62bc4532604938f21248a27a1d5ca736082b6819cc1610a2881610f03565b888714610a835760405162461bcd60e51b815260206004820152602360248201527f54696d656c6f636b436f6e74726f6c6c65723a206c656e677468206d69736d616044820152620e8c6d60eb1b60648201526084016108dc565b888514610ade5760405162461bcd60e51b815260206004820152602360248201527f54696d656c6f636b436f6e74726f6c6c65723a206c656e677468206d69736d616044820152620e8c6d60eb1b60648201526084016108dc565b6000610af08b8b8b8b8b8b8b8b610bc8565b9050610afc8184610f10565b60005b8a811015610bba5780827f4cf4410cc57040e44862ef0f45f3dd5a5e02db8eb8add648d4b0e236f1d07dca8e8e85818110610b3c57610b3c61204e565b9050602002016020810190610b519190611837565b8d8d86818110610b6357610b6361204e565b905060200201358c8c87818110610b7c57610b7c61204e565b9050602002810190610b8e9190611f27565b8c8b604051610ba296959493929190611df2565b60405180910390a3610bb38161201d565b9050610aff565b505050505050505050505050565b60008888888888888888604051602001610be9989796959493929190611e30565b60405160208183030381529060405280519060200120905098975050505050505050565b7ffd643c72710c63c0180259aba6b2d05451e3591a24e58b62239378085726f783610c3781610f03565b610c40826108f3565b610cb25760405162461bcd60e51b815260206004820152603160248201527f54696d656c6f636b436f6e74726f6c6c65723a206f7065726174696f6e20636160448201527f6e6e6f742062652063616e63656c6c656400000000000000000000000000000060648201526084016108dc565b6000828152600160205260408082208290555183917fbaa1eb22f2a492ba1a5fea61b8df4d27c6c8b5f3971e63bb58fa14ff72eedb7091a25050565b600082815260208190526040902060010154610d0981610f03565b6108448383611437565b600080527fdae2aa361dfd1ca020a396615627d436107c35eff9fe7738a3512819782d70696020527f5ba6852781629bcdcd4bdaa6de76d786f1c64b16acdac474e55bebc0ea157951547fd8aa0f3194971a2a116679f7c2090f6939c8d4e01a2a8d7e41d55e5351469e639060ff16610d9057610d90813361108b565b878614610deb5760405162461bcd60e51b815260206004820152602360248201527f54696d656c6f636b436f6e74726f6c6c65723a206c656e677468206d69736d616044820152620e8c6d60eb1b60648201526084016108dc565b878414610e465760405162461bcd60e51b815260206004820152602360248201527f54696d656c6f636b436f6e74726f6c6c65723a206c656e677468206d69736d616044820152620e8c6d60eb1b60648201526084016108dc565b6000610e588a8a8a8a8a8a8a8a610bc8565b9050610e648185611109565b60005b89811015610eed57610edd82828d8d85818110610e8657610e8661204e565b9050602002016020810190610e9b9190611837565b8c8c86818110610ead57610ead61204e565b905060200201358b8b87818110610ec657610ec661204e565b9050602002810190610ed89190611f27565b6111ff565b610ee68161201d565b9050610e67565b50610ef78161131d565b50505050505050505050565b610f0d813361108b565b50565b610f1982610849565b15610f8c5760405162461bcd60e51b815260206004820152602f60248201527f54696d656c6f636b436f6e74726f6c6c65723a206f7065726174696f6e20616c60448201527f7265616479207363686564756c6564000000000000000000000000000000000060648201526084016108dc565b6002548110156110045760405162461bcd60e51b815260206004820152602660248201527f54696d656c6f636b436f6e74726f6c6c65723a20696e73756666696369656e7460448201527f2064656c6179000000000000000000000000000000000000000000000000000060648201526084016108dc565b61100e8142611f9f565b6000928352600160205260409092209190915550565b60006001600160e01b031982167f7965db0b00000000000000000000000000000000000000000000000000000000148061073857507f01ffc9a7000000000000000000000000000000000000000000000000000000006001600160e01b0319831614610738565b6000828152602081815260408083206001600160a01b038516845290915290205460ff166108ef576110c7816001600160a01b031660146114b6565b6110d28360206114b6565b6040516020016110e3929190611d3e565b60408051601f198184030181529082905262461bcd60e51b82526108dc91600401611ef4565b611112826107f9565b6111715760405162461bcd60e51b815260206004820152602a60248201527f54696d656c6f636b436f6e74726f6c6c65723a206f7065726174696f6e206973604482015269206e6f7420726561647960b01b60648201526084016108dc565b80158061118d5750600081815260016020819052604090912054145b6108ef5760405162461bcd60e51b815260206004820152602660248201527f54696d656c6f636b436f6e74726f6c6c65723a206d697373696e67206465706560448201527f6e64656e6379000000000000000000000000000000000000000000000000000060648201526084016108dc565b6000846001600160a01b031684848460405161121c929190611d2e565b60006040518083038185875af1925050503d8060008114611259576040519150601f19603f3d011682016040523d82523d6000602084013e61125e565b606091505b50509050806112d55760405162461bcd60e51b815260206004820152603360248201527f54696d656c6f636b436f6e74726f6c6c65723a20756e6465726c79696e67207460448201527f72616e73616374696f6e2072657665727465640000000000000000000000000060648201526084016108dc565b85877fc2617efa69bab66782fa219543714338489c4e9e178271560a91b82c3f612b588787878760405161130c9493929190611dbf565b60405180910390a350505050505050565b611326816107f9565b6113855760405162461bcd60e51b815260206004820152602a60248201527f54696d656c6f636b436f6e74726f6c6c65723a206f7065726174696f6e206973604482015269206e6f7420726561647960b01b60648201526084016108dc565b600090815260016020819052604090912055565b6000828152602081815260408083206001600160a01b038516845290915290205460ff166108ef576000828152602081815260408083206001600160a01b03851684529091529020805460ff191660011790556113f33390565b6001600160a01b0316816001600160a01b0316837f2f8788117e7eff1d82e926ec794901d17c78024a50270940304540a733656f0d60405160405180910390a45050565b6000828152602081815260408083206001600160a01b038516845290915290205460ff16156108ef576000828152602081815260408083206001600160a01b0385168085529252808320805460ff1916905551339285917ff6391f5c32d9c69d2a47ea670b442974b53935d1edc7fd64eb21e047a839171b9190a45050565b606060006114c5836002611fb7565b6114d0906002611f9f565b67ffffffffffffffff8111156114e8576114e8612064565b6040519080825280601f01601f191660200182016040528015611512576020820181803683370190505b5090507f3000000000000000000000000000000000000000000000000000000000000000816000815181106115495761154961204e565b60200101906001600160f81b031916908160001a9053507f7800000000000000000000000000000000000000000000000000000000000000816001815181106115945761159461204e565b60200101906001600160f81b031916908160001a90535060006115b8846002611fb7565b6115c3906001611f9f565b90505b6001811115611648577f303132333435363738396162636465660000000000000000000000000000000085600f16601081106116045761160461204e565b1a60f81b82828151811061161a5761161a61204e565b60200101906001600160f81b031916908160001a90535060049490941c9361164181612006565b90506115c6565b5083156108185760405162461bcd60e51b815260206004820181905260248201527f537472696e67733a20686578206c656e67746820696e73756666696369656e7460448201526064016108dc565b80356001600160a01b03811681146116ae57600080fd5b919050565b60008083601f8401126116c557600080fd5b50813567ffffffffffffffff8111156116dd57600080fd5b6020830191508360208260051b85010111156116f857600080fd5b9250929050565b600082601f83011261171057600080fd5b8135602067ffffffffffffffff82111561172c5761172c612064565b8160051b61173b828201611f6e565b83815282810190868401838801850189101561175657600080fd5b600093505b8584101561177957803583526001939093019291840191840161175b565b50979650505050505050565b60008083601f84011261179757600080fd5b50813567ffffffffffffffff8111156117af57600080fd5b6020830191508360208285010111156116f857600080fd5b600082601f8301126117d857600080fd5b813567ffffffffffffffff8111156117f2576117f2612064565b611805601f8201601f1916602001611f6e565b81815284602083860101111561181a57600080fd5b816020850160208301376000918101602001919091529392505050565b60006020828403121561184957600080fd5b61081882611697565b600080600080600060a0868803121561186a57600080fd5b61187386611697565b945061188160208701611697565b9350604086013567ffffffffffffffff8082111561189e57600080fd5b6118aa89838a016116ff565b945060608801359150808211156118c057600080fd5b6118cc89838a016116ff565b935060808801359150808211156118e257600080fd5b506118ef888289016117c7565b9150509295509295909350565b6000806000806080858703121561191257600080fd5b61191b85611697565b935061192960208601611697565b925060408501359150606085013567ffffffffffffffff81111561194c57600080fd5b611958878288016117c7565b91505092959194509250565b600080600080600060a0868803121561197c57600080fd5b61198586611697565b945061199360208701611697565b93506040860135925060608601359150608086013567ffffffffffffffff8111156119bd57600080fd5b6118ef888289016117c7565b60008060008060008060a087890312156119e257600080fd5b6119eb87611697565b955060208701359450604087013567ffffffffffffffff811115611a0e57600080fd5b611a1a89828a01611785565b979a9699509760608101359660809091013595509350505050565b600080600080600080600060c0888a031215611a5057600080fd5b611a5988611697565b965060208801359550604088013567ffffffffffffffff811115611a7c57600080fd5b611a888a828b01611785565b989b979a50986060810135976080820135975060a09091013595509350505050565b60008060008060008060008060a0898b031215611ac657600080fd5b883567ffffffffffffffff80821115611ade57600080fd5b611aea8c838d016116b3565b909a50985060208b0135915080821115611b0357600080fd5b611b0f8c838d016116b3565b909850965060408b0135915080821115611b2857600080fd5b50611b358b828c016116b3565b999c989b509699959896976060870135966080013595509350505050565b600080600080600080600080600060c08a8c031215611b7157600080fd5b893567ffffffffffffffff80821115611b8957600080fd5b611b958d838e016116b3565b909b50995060208c0135915080821115611bae57600080fd5b611bba8d838e016116b3565b909950975060408c0135915080821115611bd357600080fd5b50611be08c828d016116b3565b9a9d999c50979a969997986060880135976080810135975060a0013595509350505050565b600060208284031215611c1757600080fd5b5035919050565b60008060408385031215611c3157600080fd5b82359150611c4160208401611697565b90509250929050565b600060208284031215611c5c57600080fd5b81356001600160e01b03198116811461081857600080fd5b81835260006020808501808196508560051b810191508460005b87811015611cf85782840389528135601e19883603018112611caf57600080fd5b8701803567ffffffffffffffff811115611cc857600080fd5b803603891315611cd757600080fd5b611ce48682898501611d05565b9a87019a9550505090840190600101611c8e565b5091979650505050505050565b81835281816020850137506000828201602090810191909152601f909101601f19169091010190565b8183823760009101908152919050565b7f416363657373436f6e74726f6c3a206163636f756e7420000000000000000000815260008351611d76816017850160208801611fd6565b7f206973206d697373696e6720726f6c65200000000000000000000000000000006017918401918201528351611db3816028840160208801611fd6565b01602801949350505050565b6001600160a01b0385168152836020820152606060408201526000611de8606083018486611d05565b9695505050505050565b6001600160a01b038716815285602082015260a060408201526000611e1b60a083018688611d05565b60608301949094525060800152949350505050565b60a0808252810188905260008960c08301825b8b811015611e71576001600160a01b03611e5c84611697565b16825260209283019290910190600101611e43565b5083810360208501528881527f07ffffffffffffffffffffffffffffffffffffffffffffffffffffffffffffff891115611eaa57600080fd5b8860051b9150818a602083013781810191505060208101600081526020848303016040850152611edb81888a611c74565b6060850196909652505050608001529695505050505050565b6020815260008251806020840152611f13816040850160208701611fd6565b601f01601f19169190910160400192915050565b6000808335601e19843603018112611f3e57600080fd5b83018035915067ffffffffffffffff821115611f5957600080fd5b6020019150368190038213156116f857600080fd5b604051601f8201601f1916810167ffffffffffffffff81118282101715611f9757611f97612064565b604052919050565b60008219821115611fb257611fb2612038565b500190565b6000816000190483118215151615611fd157611fd1612038565b500290565b60005b83811015611ff1578181015183820152602001611fd9565b83811115612000576000848401525b50505050565b60008161201557612015612038565b506000190190565b600060001982141561203157612031612038565b5060010190565b634e487b7160e01b600052601160045260246000fd5b634e487b7160e01b600052603260045260246000fd5b634e487b7160e01b600052604160045260246000fdfea26469706673582212206349d56bbb8c5de6473ac15698328d3a7329827408338abf000409f7a8a8a4c064736f6c634300080700335f58e3a2316349923ce3780f8d587db2d72378aed66a8261c916544fa6846ca5b09aa5aeb3702cfd50b6b62bc4532604938f21248a27a1d5ca736082b6819cc1d8aa0f3194971a2a116679f7c2090f6939c8d4e01a2a8d7e41d55e5351469e63fd643c72710c63c0180259aba6b2d05451e3591a24e58b62239378085726f783",
  "linkReferences": {},
  "deployedLinkReferences": {}
}